{
  "_format": "hh-sol-artifact-1",
  "contractName": "ERC20TokensSwap",
  "sourceName": "contracts/ERC20TokensSwap.sol",
  "abi": [
    {
      "inputs": [
        {
          "internalType": "contract ERC20",
          "name": "_baseToken",
          "type": "address"
        },
        {
          "internalType": "contract ERC20",
          "name": "_quoteToken",
          "type": "address"
        },
        {
          "internalType": "address",
          "name": "_exchangeRate",
          "type": "address"
        }
      ],
      "stateMutability": "nonpayable",
      "type": "constructor"
    },
    {
      "anonymous": false,
      "inputs": [
        {
          "indexed": true,
          "internalType": "int256",
          "name": "scaledPrice",
          "type": "int256"
        },
        {
          "indexed": true,
          "internalType": "uint256",
          "name": "timeStamp",
          "type": "uint256"
        }
      ],
      "name": "Rate",
      "type": "event"
    },
    {
      "anonymous": false,
      "inputs": [
        {
          "indexed": true,
          "internalType": "string",
          "name": "exchangeType",
          "type": "string"
        },
        {
          "indexed": true,
          "internalType": "uint256",
          "name": "sellingAmount",
          "type": "uint256"
        },
        {
          "indexed": true,
          "internalType": "uint256",
          "name": "buyingAmount",
          "type": "uint256"
        }
      ],
      "name": "SwapRateInfo",
      "type": "event"
    },
    {
      "anonymous": false,
      "inputs": [
        {
          "indexed": true,
          "internalType": "address",
          "name": "beneficiary",
          "type": "address"
        },
        {
          "indexed": true,
          "internalType": "uint256",
          "name": "amountSent",
          "type": "uint256"
        },
        {
          "indexed": true,
          "internalType": "uint256",
          "name": "amountReceived",
          "type": "uint256"
        }
      ],
      "name": "SwapTransferInfo",
      "type": "event"
    },
    {
      "inputs": [],
      "name": "baseToken",
      "outputs": [
        {
          "internalType": "contract ERC20",
          "name": "",
          "type": "address"
        }
      ],
      "stateMutability": "view",
      "type": "function"
    },
    {
      "inputs": [
        {
          "internalType": "uint256",
          "name": "_baseTokenAmount",
          "type": "uint256"
        }
      ],
      "name": "getAskPrice",
      "outputs": [
        {
          "internalType": "uint256",
          "name": "",
          "type": "uint256"
        }
      ],
      "stateMutability": "nonpayable",
      "type": "function"
    },
    {
      "inputs": [],
      "name": "getAvailableBaseTokenLiquidity",
      "outputs": [
        {
          "internalType": "uint256",
          "name": "",
          "type": "uint256"
        }
      ],
      "stateMutability": "view",
      "type": "function"
    },
    {
      "inputs": [],
      "name": "getAvailableQuoteTokenLiquidity",
      "outputs": [
        {
          "internalType": "uint256",
          "name": "",
          "type": "uint256"
        }
      ],
      "stateMutability": "view",
      "type": "function"
    },
    {
      "inputs": [
        {
          "internalType": "uint256",
          "name": "_quoteTokenAmount",
          "type": "uint256"
        }
      ],
      "name": "getBidPrice",
      "outputs": [
        {
          "internalType": "uint256",
          "name": "",
          "type": "uint256"
        }
      ],
      "stateMutability": "nonpayable",
      "type": "function"
    },
    {
      "inputs": [
        {
          "internalType": "uint8",
          "name": "_scalingDecimal",
          "type": "uint8"
        }
      ],
      "name": "getScaledRate",
      "outputs": [
        {
          "internalType": "int256",
          "name": "",
          "type": "int256"
        }
      ],
      "stateMutability": "nonpayable",
      "type": "function"
    },
    {
      "inputs": [],
      "name": "pairName",
      "outputs": [
        {
          "internalType": "string",
          "name": "",
          "type": "string"
        }
      ],
      "stateMutability": "view",
      "type": "function"
    },
    {
      "inputs": [],
      "name": "quoteToken",
      "outputs": [
        {
          "internalType": "contract ERC20",
          "name": "",
          "type": "address"
        }
      ],
      "stateMutability": "view",
      "type": "function"
    },
    {
      "inputs": [
        {
          "internalType": "uint256",
          "name": "_baseTokenAmount",
          "type": "uint256"
        }
      ],
      "name": "swapBaseForQuoteToken",
      "outputs": [],
      "stateMutability": "payable",
      "type": "function"
    },
    {
      "inputs": [
        {
          "internalType": "uint256",
          "name": "_quoteTokenAmount",
          "type": "uint256"
        }
      ],
      "name": "swapQuoteForBaseToken",
      "outputs": [],
      "stateMutability": "payable",
      "type": "function"
    }
  ],
  "bytecode": "0x60806040526002805460ff191660121790553480156200001e57600080fd5b506040516200152c3803806200152c8339810160408190526200004191620002dc565b600080546001600160a01b038084166001600160a01b03199283161783556002805486831661010002610100600160a81b031990911617905560038054918716919092168117909155604080516395d89b4160e01b81529051620001ae936395d89b419260048082019391829003018186803b158015620000c157600080fd5b505afa158015620000d6573d6000803e3d6000fd5b505050506040513d6000823e601f3d908101601f1916820160405262000100919081019062000379565b604051806040016040528060018152602001602f60f81b815250600260019054906101000a90046001600160a01b03166001600160a01b03166395d89b416040518163ffffffff1660e01b815260040160006040518083038186803b1580156200016957600080fd5b505afa1580156200017e573d6000803e3d6000fd5b505050506040513d6000823e601f3d908101601f19168201604052620001a8919081019062000379565b620001ce565b8051620001c4916001916020909101906200021d565b50505050620004a1565b6060620001e7620001e08585620001ef565b83620001ef565b949350505050565b606082826040516020016200020692919062000431565b604051602081830303815290604052905092915050565b8280546200022b9062000464565b90600052602060002090601f0160209004810192826200024f57600085556200029a565b82601f106200026a57805160ff19168380011785556200029a565b828001600101855582156200029a579182015b828111156200029a5782518255916020019190600101906200027d565b50620002a8929150620002ac565b5090565b5b80821115620002a85760008155600101620002ad565b6001600160a01b0381168114620002d957600080fd5b50565b600080600060608486031215620002f257600080fd5b8351620002ff81620002c3565b60208501519093506200031281620002c3565b60408501519092506200032581620002c3565b809150509250925092565b634e487b7160e01b600052604160045260246000fd5b60005b838110156200036357818101518382015260200162000349565b8381111562000373576000848401525b50505050565b6000602082840312156200038c57600080fd5b81516001600160401b0380821115620003a457600080fd5b818401915084601f830112620003b957600080fd5b815181811115620003ce57620003ce62000330565b604051601f8201601f19908116603f01168101908382118183101715620003f957620003f962000330565b816040528281528760208487010111156200041357600080fd5b6200042683602083016020880162000346565b979650505050505050565b600083516200044581846020880162000346565b8351908301906200045b81836020880162000346565b01949350505050565b600181811c908216806200047957607f821691505b602082108114156200049b57634e487b7160e01b600052602260045260246000fd5b50919050565b61107b80620004b16000396000f3fe6080604052600436106100915760003560e01c80639d0ba183116100595780639d0ba1831461015d578063ad5d203c1461017d578063c55dae6314610192578063c8a24fb1146101b2578063d880c370146101c757600080fd5b80630c57004a14610096578063217a4b70146100c9578063217eb0ae1461010657806340794c3b1461011b5780639b013aee1461013d575b600080fd5b3480156100a257600080fd5b506100b66100b1366004610b69565b6101da565b6040519081526020015b60405180910390f35b3480156100d557600080fd5b506002546100ee9061010090046001600160a01b031681565b6040516001600160a01b0390911681526020016100c0565b34801561011257600080fd5b506100b66102dd565b34801561012757600080fd5b506101306102fa565b6040516100c09190610bae565b34801561014957600080fd5b506100b6610158366004610b69565b610388565b34801561016957600080fd5b506100b6610178366004610bf3565b6103c5565b61019061018b366004610b69565b610525565b005b34801561019e57600080fd5b506003546100ee906001600160a01b031681565b3480156101be57600080fd5b506100b66106b4565b6101906101d5366004610b69565b6106d1565b6000806101e68361082b565b9050808361029a60405180604001604052806004815260200163020b9b5960e51b8152506001805461021790610c10565b80601f016020809104026020016040519081016040528092919081815260200182805461024390610c10565b80156102905780601f1061026557610100808354040283529160200191610290565b820191906000526020600020905b81548152906001019060200180831161027357829003601f168201915b5050505050610866565b6040516102a79190610c4b565b604051908190038120907f88350a00c9d980accf5486d4817c4f938edc6aa8a526efb4c9eaa7e12c69f4cb90600090a492915050565b6003546000906102f5906001600160a01b0316610893565b905090565b6001805461030790610c10565b80601f016020809104026020016040519081016040528092919081815260200182805461033390610c10565b80156103805780601f1061035557610100808354040283529160200191610380565b820191906000526020600020905b81548152906001019060200180831161036357829003601f168201915b505050505081565b6000806103948361090d565b9050808361029a6040518060400160405280600481526020016302134b2160e51b8152506001805461021790610c10565b60008060008060009054906101000a90046001600160a01b03166001600160a01b031663feaf968c6040518163ffffffff1660e01b815260040160a06040518083038186803b15801561041757600080fd5b505afa15801561042b573d6000803e3d6000fd5b505050506040513d601f19601f8201168201806040525081019061044f9190610c86565b5093505092505060008060009054906101000a90046001600160a01b03166001600160a01b031663313ce5676040518163ffffffff1660e01b815260040160206040518083038186803b1580156104a557600080fd5b505afa1580156104b9573d6000803e3d6000fd5b505050506040513d601f19601f820116820180604052508101906104dd9190610cd6565b905060006104ec848388610941565b905082817fb6c1393c2251d5f83b6b4923759cf156e72f269dc654f872eab19c92b853cf5e60405160405180910390a395945050505050565b61052f33826109b2565b600061053a826101da565b905061054630826109cd565b6003546001600160a01b03166323b872dd336040516001600160e01b031960e084901b1681526001600160a01b03909116600482015230602482015260448101859052606401602060405180830381600087803b1580156105a657600080fd5b505af11580156105ba573d6000803e3d6000fd5b505050506040513d601f19601f820116820180604052508101906105de9190610cf3565b5060025461010090046001600160a01b031663a9059cbb336040516001600160e01b031960e084901b1681526001600160a01b03909116600482015260248101849052604401602060405180830381600087803b15801561063e57600080fd5b505af1158015610652573d6000803e3d6000fd5b505050506040513d601f19601f820116820180604052508101906106769190610cf3565b508034335b6001600160a01b03167f42daeb9fe1f789384a4e1fd40506a3a12cec73b4c4ea3302b3c501c8e044aebb60405160405180910390a45050565b6002546000906102f59061010090046001600160a01b0316610893565b6106db33826109cd565b60006106e682610388565b90506106f230826109b2565b60025461010090046001600160a01b03166323b872dd336040516001600160e01b031960e084901b1681526001600160a01b03909116600482015230602482015260448101859052606401602060405180830381600087803b15801561075757600080fd5b505af115801561076b573d6000803e3d6000fd5b505050506040513d601f19601f8201168201806040525081019061078f9190610cf3565b506003546001600160a01b031663a9059cbb336040516001600160e01b031960e084901b1681526001600160a01b03909116600482015260248101849052604401602060405180830381600087803b1580156107ea57600080fd5b505af11580156107fe573d6000803e3d6000fd5b505050506040513d601f19601f820116820180604052508101906108229190610cf3565b5080823361067b565b600254600090819061083f9060ff166103c5565b600254909150819061085590859060ff166109e9565b61085f9190610d2b565b9392505050565b6060828260405160200161087b929190610d4a565b60405160208183030381529060405290505b92915050565b6040516370a0823160e01b81523060048201526000906001600160a01b038316906370a082319060240160206040518083038186803b1580156108d557600080fd5b505afa1580156108e9573d6000803e3d6000fd5b505050506040513d601f19601f8201168201806040525081019061088d9190610d79565b60025460009081906109219060ff166103c5565b600254909150819061093790859060ff16610a03565b61085f9190610da8565b60008160ff168360ff16101561097a5761095b8383610dbc565b6109699060ff16600a610ec3565b6109739085610ecf565b905061085f565b8160ff168360ff1611156109aa576109928284610dbc565b6109a09060ff16600a610ec3565b6109739085610f54565b509192915050565b6003546109c9906001600160a01b03168383610a1d565b5050565b6002546109c99061010090046001600160a01b03168383610a1d565b60006109f960ff8316600a610ec3565b61085f9084610da8565b6000610a1360ff8316600a610ec3565b61085f9084610d2b565b6040516370a0823160e01b81526001600160a01b0383811660048301528291908516906370a082319060240160206040518083038186803b158015610a6157600080fd5b505afa158015610a75573d6000803e3d6000fd5b505050506040513d601f19601f82011682018060405250810190610a999190610d79565b1015610b3c6040518060400160405280600b81526020016a02737ba1032b737bab3b4160ad1b815250856001600160a01b03166395d89b416040518163ffffffff1660e01b815260040160006040518083038186803b158015610afb57600080fd5b505afa158015610b0f573d6000803e3d6000fd5b505050506040513d6000823e601f3d908101601f19168201604052610b379190810190610f98565b610866565b90610b635760405162461bcd60e51b8152600401610b5a9190610bae565b60405180910390fd5b50505050565b600060208284031215610b7b57600080fd5b5035919050565b60005b83811015610b9d578181015183820152602001610b85565b83811115610b635750506000910152565b6020815260008251806020840152610bcd816040850160208701610b82565b601f01601f19169190910160400192915050565b60ff81168114610bf057600080fd5b50565b600060208284031215610c0557600080fd5b813561085f81610be1565b600181811c90821680610c2457607f821691505b60208210811415610c4557634e487b7160e01b600052602260045260246000fd5b50919050565b60008251610c5d818460208701610b82565b9190910192915050565b805169ffffffffffffffffffff81168114610c8157600080fd5b919050565b600080600080600060a08688031215610c9e57600080fd5b610ca786610c67565b9450602086015193506040860151925060608601519150610cca60808701610c67565b90509295509295909350565b600060208284031215610ce857600080fd5b815161085f81610be1565b600060208284031215610d0557600080fd5b8151801515811461085f57600080fd5b634e487b7160e01b600052601160045260246000fd5b6000816000190483118215151615610d4557610d45610d15565b500290565b60008351610d5c818460208801610b82565b835190830190610d70818360208801610b82565b01949350505050565b600060208284031215610d8b57600080fd5b5051919050565b634e487b7160e01b600052601260045260246000fd5b600082610db757610db7610d92565b500490565b600060ff821660ff841680821015610dd657610dd6610d15565b90039392505050565b600181815b80851115610e1a578160001904821115610e0057610e00610d15565b80851615610e0d57918102915b93841c9390800290610de4565b509250929050565b600082610e315750600161088d565b81610e3e5750600061088d565b8160018114610e545760028114610e5e57610e7a565b600191505061088d565b60ff841115610e6f57610e6f610d15565b50506001821b61088d565b5060208310610133831016604e8410600b8410161715610e9d575081810a61088d565b610ea78383610ddf565b8060001904821115610ebb57610ebb610d15565b029392505050565b600061085f8383610e22565b60006001600160ff1b0381841382841380821686840486111615610ef557610ef5610d15565b600160ff1b6000871282811687830589121615610f1457610f14610d15565b60008712925087820587128484161615610f3057610f30610d15565b87850587128184161615610f4657610f46610d15565b505050929093029392505050565b600082610f6357610f63610d92565b600160ff1b821460001984141615610f7d57610f7d610d15565b500590565b634e487b7160e01b600052604160045260246000fd5b600060208284031215610faa57600080fd5b815167ffffffffffffffff80821115610fc257600080fd5b818401915084601f830112610fd657600080fd5b815181811115610fe857610fe8610f82565b604051601f8201601f19908116603f0116810190838211818310171561101057611010610f82565b8160405282815287602084870101111561102957600080fd5b61103a836020830160208801610b82565b97965050505050505056fea2646970667358221220cea5e992f508cd83cfb200f53686a053655a1dca5cc750e0cd2cd8d8c4d7cf0664736f6c63430008090033",
  "linkReferences": {},
  "deployedLinkReferences": {}
}