{
  "_format": "hh-sol-artifact-1",
  "contractName": "Crowdsale",
  "sourceName": "contracts/Crowdsale.sol",
  "abi": [
    {
      "inputs": [
        {
          "internalType": "uint256",
          "name": "rateOfToken",
          "type": "uint256"
        },
        {
          "internalType": "address payable",
          "name": "walletAddress",
          "type": "address"
        },
        {
          "internalType": "contract IERC20",
          "name": "tokenToSend",
          "type": "address"
        }
      ],
      "stateMutability": "nonpayable",
      "type": "constructor"
    },
    {
      "anonymous": false,
      "inputs": [
        {
          "indexed": true,
          "internalType": "address",
          "name": "purchaser",
          "type": "address"
        },
        {
          "indexed": true,
          "internalType": "address",
          "name": "beneficiary",
          "type": "address"
        },
        {
          "indexed": false,
          "internalType": "uint256",
          "name": "value",
          "type": "uint256"
        },
        {
          "indexed": false,
          "internalType": "uint256",
          "name": "amount",
          "type": "uint256"
        }
      ],
      "name": "TokensPurchased",
      "type": "event"
    },
    {
      "inputs": [
        {
          "internalType": "address",
          "name": "beneficiary",
          "type": "address"
        }
      ],
      "name": "buyTokens",
      "outputs": [],
      "stateMutability": "payable",
      "type": "function"
    },
    {
      "inputs": [],
      "name": "rate",
      "outputs": [
        {
          "internalType": "uint256",
          "name": "",
          "type": "uint256"
        }
      ],
      "stateMutability": "view",
      "type": "function"
    },
    {
      "inputs": [],
      "name": "toUnit",
      "outputs": [
        {
          "internalType": "contract IERC20",
          "name": "",
          "type": "address"
        }
      ],
      "stateMutability": "view",
      "type": "function"
    },
    {
      "inputs": [],
      "name": "wallet",
      "outputs": [
        {
          "internalType": "address payable",
          "name": "",
          "type": "address"
        }
      ],
      "stateMutability": "view",
      "type": "function"
    },
    {
      "inputs": [],
      "name": "weiRaised",
      "outputs": [
        {
          "internalType": "uint256",
          "name": "",
          "type": "uint256"
        }
      ],
      "stateMutability": "view",
      "type": "function"
    },
    {
      "stateMutability": "payable",
      "type": "receive"
    }
  ],
  "bytecode": "0x608060405234801561001057600080fd5b5060405161061938038061061983398101604081905261002f9161016d565b6001600055826100725760405162461bcd60e51b815260206004820152600960248201526807261746520697320360bc1b60448201526064015b60405180910390fd5b6001600160a01b0382166100c85760405162461bcd60e51b815260206004820152601a60248201527f77616c6c657420697320746865207a65726f20616464726573730000000000006044820152606401610069565b6001600160a01b03811661011e5760405162461bcd60e51b815260206004820152601960248201527f746f6b656e20697320746865207a65726f2061646472657373000000000000006044820152606401610069565b600392909255600280546001600160a01b039283166001600160a01b031991821617909155600180549290931691161790556101b0565b6001600160a01b038116811461016a57600080fd5b50565b60008060006060848603121561018257600080fd5b83519250602084015161019481610155565b60408501519092506101a581610155565b809150509250925092565b61045a806101bf6000396000f3fe60806040526004361061004e5760003560e01c80632c4e722e146100685780634042b66f1461008c578063521eb273146100a157806378794d57146100d3578063ec8ac4d8146100f157600080fd5b3661006357610061336100ff565b6100ff565b005b600080fd5b34801561007457600080fd5b506003545b6040519081526020015b60405180910390f35b34801561009857600080fd5b50600454610079565b3480156100ad57600080fd5b506002546001600160a01b03165b6040516001600160a01b039091168152602001610083565b3480156100df57600080fd5b506001546001600160a01b03166100bb565b61006161005c36600461038c565b600260005414156101575760405162461bcd60e51b815260206004820152601f60248201527f5265656e7472616e637947756172643a207265656e7472616e742063616c6c0060448201526064015b60405180910390fd5b60026000553461016782826101e7565b60006101728261027f565b600454909150610182908361029c565b60045561018f83826102af565b60408051838152602081018390526001600160a01b0385169133917f6faf93231a456e552dbc9961f58d9713ee4f2e69d15f1975b050ef0911053a7b910160405180910390a36101dd6102b9565b5050600160005550565b6001600160a01b03821661023d5760405162461bcd60e51b815260206004820152601f60248201527f62656e656669636961727920697320746865207a65726f206164647265737300604482015260640161014e565b8061027b5760405162461bcd60e51b815260206004820152600e60248201526d0776569416d6f756e7420697320360941b604482015260640161014e565b5050565b6000610296600354836102f590919063ffffffff16565b92915050565b60006102a882846103cb565b9392505050565b61027b8282610301565b6002546040516001600160a01b03909116903480156108fc02916000818181858888f193505050501580156102f2573d6000803e3d6000fd5b50565b60006102a882846103e3565b60015460405163a9059cbb60e01b81526001600160a01b038481166004830152602482018490529091169063a9059cbb90604401602060405180830381600087803b15801561034f57600080fd5b505af1158015610363573d6000803e3d6000fd5b505050506040513d601f19601f820116820180604052508101906103879190610402565b505050565b60006020828403121561039e57600080fd5b81356001600160a01b03811681146102a857600080fd5b634e487b7160e01b600052601160045260246000fd5b600082198211156103de576103de6103b5565b500190565b60008160001904831182151516156103fd576103fd6103b5565b500290565b60006020828403121561041457600080fd5b815180151581146102a857600080fdfea26469706673582212204b32eb55b2d301a91ac29b778875844183dd10415da2e0e4a8381dc561a470da64736f6c63430008090033",
  "linkReferences": {},
  "deployedLinkReferences": {}
}