{
  "_format": "hh-sol-artifact-1",
  "contractName": "EthQuoteSwap",
  "sourceName": "contracts/EthQuoteSwap.sol",
  "abi": [
    {
      "inputs": [
        {
          "internalType": "contract AstroToken",
          "name": "_quoteToken",
          "type": "address"
        },
        {
          "internalType": "address",
          "name": "_ethToUsdRate",
          "type": "address"
        }
      ],
      "stateMutability": "nonpayable",
      "type": "constructor"
    },
    {
      "anonymous": false,
      "inputs": [
        {
          "indexed": true,
          "internalType": "address",
          "name": "previousOwner",
          "type": "address"
        },
        {
          "indexed": true,
          "internalType": "address",
          "name": "newOwner",
          "type": "address"
        }
      ],
      "name": "OwnershipTransferred",
      "type": "event"
    },
    {
      "anonymous": false,
      "inputs": [
        {
          "indexed": true,
          "internalType": "int256",
          "name": "scaledPrice",
          "type": "int256"
        },
        {
          "indexed": true,
          "internalType": "uint256",
          "name": "timeStamp",
          "type": "uint256"
        }
      ],
      "name": "Rate",
      "type": "event"
    },
    {
      "anonymous": false,
      "inputs": [
        {
          "indexed": true,
          "internalType": "string",
          "name": "exchangeType",
          "type": "string"
        },
        {
          "indexed": true,
          "internalType": "uint256",
          "name": "sellingAmount",
          "type": "uint256"
        },
        {
          "indexed": true,
          "internalType": "uint256",
          "name": "buyingAmount",
          "type": "uint256"
        }
      ],
      "name": "SwapRateInfo",
      "type": "event"
    },
    {
      "anonymous": false,
      "inputs": [
        {
          "indexed": true,
          "internalType": "address",
          "name": "beneficiary",
          "type": "address"
        },
        {
          "indexed": true,
          "internalType": "uint256",
          "name": "amountSent",
          "type": "uint256"
        },
        {
          "indexed": true,
          "internalType": "uint256",
          "name": "amountReceived",
          "type": "uint256"
        }
      ],
      "name": "SwapTransferInfo",
      "type": "event"
    },
    {
      "inputs": [
        {
          "internalType": "uint256",
          "name": "_baseTokenAmount",
          "type": "uint256"
        }
      ],
      "name": "getAskPrice",
      "outputs": [
        {
          "internalType": "uint256",
          "name": "",
          "type": "uint256"
        }
      ],
      "stateMutability": "nonpayable",
      "type": "function"
    },
    {
      "inputs": [
        {
          "internalType": "uint256",
          "name": "_quoteToken",
          "type": "uint256"
        }
      ],
      "name": "getBidPrice",
      "outputs": [
        {
          "internalType": "uint256",
          "name": "",
          "type": "uint256"
        }
      ],
      "stateMutability": "nonpayable",
      "type": "function"
    },
    {
      "inputs": [
        {
          "internalType": "uint8",
          "name": "_scalingDecimal",
          "type": "uint8"
        }
      ],
      "name": "getScaledRate",
      "outputs": [
        {
          "internalType": "int256",
          "name": "",
          "type": "int256"
        }
      ],
      "stateMutability": "nonpayable",
      "type": "function"
    },
    {
      "inputs": [],
      "name": "owner",
      "outputs": [
        {
          "internalType": "address",
          "name": "",
          "type": "address"
        }
      ],
      "stateMutability": "view",
      "type": "function"
    },
    {
      "inputs": [],
      "name": "pairName",
      "outputs": [
        {
          "internalType": "string",
          "name": "",
          "type": "string"
        }
      ],
      "stateMutability": "view",
      "type": "function"
    },
    {
      "inputs": [],
      "name": "quoteToken",
      "outputs": [
        {
          "internalType": "contract AstroToken",
          "name": "",
          "type": "address"
        }
      ],
      "stateMutability": "view",
      "type": "function"
    },
    {
      "inputs": [],
      "name": "renounceOwnership",
      "outputs": [],
      "stateMutability": "nonpayable",
      "type": "function"
    },
    {
      "inputs": [
        {
          "internalType": "uint256",
          "name": "_baseTokenAmount",
          "type": "uint256"
        }
      ],
      "name": "swapBaseForQuoteToken",
      "outputs": [],
      "stateMutability": "payable",
      "type": "function"
    },
    {
      "inputs": [
        {
          "internalType": "uint256",
          "name": "_quoteTokenAmount",
          "type": "uint256"
        }
      ],
      "name": "swapQuoteForBaseToken",
      "outputs": [],
      "stateMutability": "payable",
      "type": "function"
    },
    {
      "inputs": [
        {
          "internalType": "address",
          "name": "newOwner",
          "type": "address"
        }
      ],
      "name": "transferOwnership",
      "outputs": [],
      "stateMutability": "nonpayable",
      "type": "function"
    }
  ],
  "bytecode": "0x60806040526003805460ff191660121790553480156200001e57600080fd5b506040516200138438038062001384833981016040819052620000419162000284565b806200004d3362000147565b600180546001600160a01b0319166001600160a01b0392831617905560038054610100600160a81b031916610100858416810291909117918290556040805180820182526004808252634554482f60e01b602083015282516395d89b4160e01b815292516200012896929594909404909116926395d89b41928083019260009291829003018186803b158015620000e357600080fd5b505afa158015620000f8573d6000803e3d6000fd5b505050506040513d6000823e601f3d908101601f191682016040526200012291908101906200030c565b62000197565b80516200013e91600291602090910190620001c5565b50505062000434565b600080546001600160a01b038381166001600160a01b0319831681178455604051919092169283917f8be0079c531659141344cd1fd0a4f28419497f9722a3daafe3b4186f6b6457e09190a35050565b60608282604051602001620001ae929190620003c4565b604051602081830303815290604052905092915050565b828054620001d390620003f7565b90600052602060002090601f016020900481019282620001f7576000855562000242565b82601f106200021257805160ff191683800117855562000242565b8280016001018555821562000242579182015b828111156200024257825182559160200191906001019062000225565b506200025092915062000254565b5090565b5b8082111562000250576000815560010162000255565b6001600160a01b03811681146200028157600080fd5b50565b600080604083850312156200029857600080fd5b8251620002a5816200026b565b6020840151909250620002b8816200026b565b809150509250929050565b634e487b7160e01b600052604160045260246000fd5b60005b83811015620002f6578181015183820152602001620002dc565b8381111562000306576000848401525b50505050565b6000602082840312156200031f57600080fd5b81516001600160401b03808211156200033757600080fd5b818401915084601f8301126200034c57600080fd5b815181811115620003615762000361620002c3565b604051601f8201601f19908116603f011681019083821181831017156200038c576200038c620002c3565b81604052828152876020848701011115620003a657600080fd5b620003b9836020830160208801620002d9565b979650505050505050565b60008351620003d8818460208801620002d9565b835190830190620003ee818360208801620002d9565b01949350505050565b600181811c908216806200040c57607f821691505b602082108114156200042e57634e487b7160e01b600052602260045260246000fd5b50919050565b610f4080620004446000396000f3fe6080604052600436106100915760003560e01c80639b013aee116100595780639b013aee1461015d5780639d0ba1831461017d578063ad5d203c1461019d578063d880c370146101b0578063f2fde38b146101c357600080fd5b80630c57004a14610096578063217a4b70146100c957806340794c3b14610106578063715018a6146101285780638da5cb5b1461013f575b600080fd5b3480156100a257600080fd5b506100b66100b1366004610a24565b6101e3565b6040519081526020015b60405180910390f35b3480156100d557600080fd5b506003546100ee9061010090046001600160a01b031681565b6040516001600160a01b0390911681526020016100c0565b34801561011257600080fd5b5061011b610248565b6040516100c09190610a69565b34801561013457600080fd5b5061013d6102d6565b005b34801561014b57600080fd5b506000546001600160a01b03166100ee565b34801561016957600080fd5b506100b6610178366004610a24565b610341565b34801561018957600080fd5b506100b6610198366004610aab565b610370565b61013d6101ab366004610a24565b6104d2565b61013d6101be366004610a24565b6105b0565b3480156101cf57600080fd5b5061013d6101de366004610ac8565b610612565b6000806101ef836106dd565b90508083604051610212906b45544820746f20415354524f60a01b8152600c0190565b604051908190038120907f88350a00c9d980accf5486d4817c4f938edc6aa8a526efb4c9eaa7e12c69f4cb90600090a492915050565b6002805461025590610af1565b80601f016020809104026020016040519081016040528092919081815260200182805461028190610af1565b80156102ce5780601f106102a3576101008083540402835291602001916102ce565b820191906000526020600020905b8154815290600101906020018083116102b157829003601f168201915b505050505081565b6000546001600160a01b031633146103355760405162461bcd60e51b815260206004820181905260248201527f4f776e61626c653a2063616c6c6572206973206e6f7420746865206f776e657260448201526064015b60405180910390fd5b61033f6000610718565b565b60008061034d83610768565b90508083604051610212906b082a6a8a49e40e8de408aa8960a31b8152600c0190565b6000806000600160009054906101000a90046001600160a01b03166001600160a01b031663feaf968c6040518163ffffffff1660e01b815260040160a06040518083038186803b1580156103c357600080fd5b505afa1580156103d7573d6000803e3d6000fd5b505050506040513d601f19601f820116820180604052508101906103fb9190610b4b565b509350509250506000600160009054906101000a90046001600160a01b03166001600160a01b031663313ce5676040518163ffffffff1660e01b815260040160206040518083038186803b15801561045257600080fd5b505afa158015610466573d6000803e3d6000fd5b505050506040513d601f19601f8201168201806040525081019061048a9190610b9b565b9050600061049984838861079c565b905082817fb6c1393c2251d5f83b6b4923759cf156e72f269dc654f872eab19c92b853cf5e60405160405180910390a395945050505050565b60006104dd826101e3565b90506104e9308261080d565b6104f3308361082d565b60035460405163a9059cbb60e01b8152336004820152602481018390526101009091046001600160a01b03169063a9059cbb906044015b602060405180830381600087803b15801561054457600080fd5b505af1158015610558573d6000803e3d6000fd5b505050506040513d601f19601f8201168201806040525081019061057c9190610bb8565b506040518190839033907f42daeb9fe1f789384a4e1fd40506a3a12cec73b4c4ea3302b3c501c8e044aebb90600090a45050565b6105ba338261080d565b60006105c582610341565b90506105d1338261082d565b6003546040516323b872dd60e01b8152336004820152306024820152604481018490526101009091046001600160a01b0316906323b872dd9060640161052a565b6000546001600160a01b0316331461066c5760405162461bcd60e51b815260206004820181905260248201527f4f776e61626c653a2063616c6c6572206973206e6f7420746865206f776e6572604482015260640161032c565b6001600160a01b0381166106d15760405162461bcd60e51b815260206004820152602660248201527f4f776e61626c653a206e6577206f776e657220697320746865207a65726f206160448201526564647265737360d01b606482015260840161032c565b6106da81610718565b50565b60035460009081906106f19060ff16610370565b600354909150819061070790859060ff16610878565b6107119190610bf0565b9392505050565b600080546001600160a01b038381166001600160a01b0319831681178455604051919092169283917f8be0079c531659141344cd1fd0a4f28419497f9722a3daafe3b4186f6b6457e09190a35050565b600354600090819061077c9060ff16610370565b600354909150819061079290859060ff1661089b565b6107119190610c25565b60008160ff168360ff1610156107d5576107b68383610c39565b6107c49060ff16600a610d40565b6107ce9085610d4c565b9050610711565b8160ff168360ff161115610805576107ed8284610c39565b6107fb9060ff16600a610d40565b6107ce9085610dd1565b509192915050565b6003546108299061010090046001600160a01b031683836108b5565b5050565b80826001600160a01b03163110156108295760405162461bcd60e51b815260206004820152600e60248201526d09cdee840cadcdeeaced0408aa8960931b604482015260640161032c565b600061088860ff8316600a610d40565b6108929084610c25565b90505b92915050565b60006108ab60ff8316600a610d40565b6108929084610bf0565b6040516370a0823160e01b81526001600160a01b0383811660048301528291908516906370a082319060240160206040518083038186803b1580156108f957600080fd5b505afa15801561090d573d6000803e3d6000fd5b505050506040513d601f19601f820116820180604052508101906109319190610dff565b10156109d46040518060400160405280600b81526020016a02737ba1032b737bab3b4160ad1b815250856001600160a01b03166395d89b416040518163ffffffff1660e01b815260040160006040518083038186803b15801561099357600080fd5b505afa1580156109a7573d6000803e3d6000fd5b505050506040513d6000823e601f3d908101601f191682016040526109cf9190810190610e2e565b6109f8565b906109f25760405162461bcd60e51b815260040161032c9190610a69565b50505050565b60608282604051602001610a0d929190610edb565b604051602081830303815290604052905092915050565b600060208284031215610a3657600080fd5b5035919050565b60005b83811015610a58578181015183820152602001610a40565b838111156109f25750506000910152565b6020815260008251806020840152610a88816040850160208701610a3d565b601f01601f19169190910160400192915050565b60ff811681146106da57600080fd5b600060208284031215610abd57600080fd5b813561071181610a9c565b600060208284031215610ada57600080fd5b81356001600160a01b038116811461071157600080fd5b600181811c90821680610b0557607f821691505b60208210811415610b2657634e487b7160e01b600052602260045260246000fd5b50919050565b805169ffffffffffffffffffff81168114610b4657600080fd5b919050565b600080600080600060a08688031215610b6357600080fd5b610b6c86610b2c565b9450602086015193506040860151925060608601519150610b8f60808701610b2c565b90509295509295909350565b600060208284031215610bad57600080fd5b815161071181610a9c565b600060208284031215610bca57600080fd5b8151801515811461071157600080fd5b634e487b7160e01b600052601160045260246000fd5b6000816000190483118215151615610c0a57610c0a610bda565b500290565b634e487b7160e01b600052601260045260246000fd5b600082610c3457610c34610c0f565b500490565b600060ff821660ff841680821015610c5357610c53610bda565b90039392505050565b600181815b80851115610c97578160001904821115610c7d57610c7d610bda565b80851615610c8a57918102915b93841c9390800290610c61565b509250929050565b600082610cae57506001610895565b81610cbb57506000610895565b8160018114610cd15760028114610cdb57610cf7565b6001915050610895565b60ff841115610cec57610cec610bda565b50506001821b610895565b5060208310610133831016604e8410600b8410161715610d1a575081810a610895565b610d248383610c5c565b8060001904821115610d3857610d38610bda565b029392505050565b60006108928383610c9f565b60006001600160ff1b0381841382841380821686840486111615610d7257610d72610bda565b600160ff1b6000871282811687830589121615610d9157610d91610bda565b60008712925087820587128484161615610dad57610dad610bda565b87850587128184161615610dc357610dc3610bda565b505050929093029392505050565b600082610de057610de0610c0f565b600160ff1b821460001984141615610dfa57610dfa610bda565b500590565b600060208284031215610e1157600080fd5b5051919050565b634e487b7160e01b600052604160045260246000fd5b600060208284031215610e4057600080fd5b815167ffffffffffffffff80821115610e5857600080fd5b818401915084601f830112610e6c57600080fd5b815181811115610e7e57610e7e610e18565b604051601f8201601f19908116603f01168101908382118183101715610ea657610ea6610e18565b81604052828152876020848701011115610ebf57600080fd5b610ed0836020830160208801610a3d565b979650505050505050565b60008351610eed818460208801610a3d565b835190830190610f01818360208801610a3d565b0194935050505056fea2646970667358221220ee7cfa655c5fd2da4deac353f470fc92b10273bba53c8494311fd81b9e3c9b4364736f6c63430008090033",
  "linkReferences": {},
  "deployedLinkReferences": {}
}