{
  "address": "0x8A4835AaB5723F1E33147a466C21fA185B7CDcD1",
  "abi": [
    {
      "inputs": [
        {
          "internalType": "string",
          "name": "initialColor",
          "type": "string"
        }
      ],
      "stateMutability": "nonpayable",
      "type": "constructor"
    },
    {
      "anonymous": false,
      "inputs": [
        {
          "indexed": false,
          "internalType": "string",
          "name": "newValue",
          "type": "string"
        }
      ],
      "name": "ColorChanged",
      "type": "event"
    },
    {
      "anonymous": false,
      "inputs": [
        {
          "indexed": true,
          "internalType": "address",
          "name": "previousOwner",
          "type": "address"
        },
        {
          "indexed": true,
          "internalType": "address",
          "name": "newOwner",
          "type": "address"
        }
      ],
      "name": "OwnershipTransferred",
      "type": "event"
    },
    {
      "inputs": [
        {
          "internalType": "string",
          "name": "newColor",
          "type": "string"
        }
      ],
      "name": "changeColor",
      "outputs": [],
      "stateMutability": "nonpayable",
      "type": "function"
    },
    {
      "inputs": [],
      "name": "getColor",
      "outputs": [
        {
          "internalType": "string",
          "name": "",
          "type": "string"
        }
      ],
      "stateMutability": "view",
      "type": "function"
    },
    {
      "inputs": [],
      "name": "owner",
      "outputs": [
        {
          "internalType": "address",
          "name": "",
          "type": "address"
        }
      ],
      "stateMutability": "view",
      "type": "function"
    },
    {
      "inputs": [],
      "name": "renounceOwnership",
      "outputs": [],
      "stateMutability": "nonpayable",
      "type": "function"
    },
    {
      "inputs": [
        {
          "internalType": "address",
          "name": "newOwner",
          "type": "address"
        }
      ],
      "name": "transferOwnership",
      "outputs": [],
      "stateMutability": "nonpayable",
      "type": "function"
    }
  ],
  "transactionHash": "0x0ca42b2186f1e67e2fdd5ea0855eb855038c68442c601063071dfc87770a9f05",
  "args": [
    "#CB6161"
  ],
  "numDeployments": 1,
  "solcInputHash": "0745d77ea7f959d0d0cfa009084d5e3a",
  "bytecode": "0x608060405234801561001057600080fd5b506040516107c03803806107c083398101604081905261002f91610151565b61003833610052565b805161004b9060019060208401906100a2565b505061025b565b600080546001600160a01b038381166001600160a01b0319831681178455604051919092169283917f8be0079c531659141344cd1fd0a4f28419497f9722a3daafe3b4186f6b6457e09190a35050565b8280546100ae90610220565b90600052602060002090601f0160209004810192826100d05760008555610116565b82601f106100e957805160ff1916838001178555610116565b82800160010185558215610116579182015b828111156101165782518255916020019190600101906100fb565b50610122929150610126565b5090565b5b808211156101225760008155600101610127565b634e487b7160e01b600052604160045260246000fd5b6000602080838503121561016457600080fd5b82516001600160401b038082111561017b57600080fd5b818501915085601f83011261018f57600080fd5b8151818111156101a1576101a161013b565b604051601f8201601f19908116603f011681019083821181831017156101c9576101c961013b565b8160405282815288868487010111156101e157600080fd5b600093505b8284101561020357848401860151818501870152928501926101e6565b828411156102145760008684830101525b98975050505050505050565b600181811c9082168061023457607f821691505b6020821081141561025557634e487b7160e01b600052602260045260246000fd5b50919050565b6105568061026a6000396000f3fe608060405234801561001057600080fd5b50600436106100575760003560e01c80636aa2afd51461005c578063715018a6146100715780638da5cb5b146100795780639a86139b14610099578063f2fde38b146100ae575b600080fd5b61006f61006a36600461038a565b6100c1565b005b61006f61013e565b6000546040516001600160a01b0390911681526020015b60405180910390f35b6100a1610174565b60405161009091906103fc565b61006f6100bc366004610451565b610206565b6000546001600160a01b031633146100f45760405162461bcd60e51b81526004016100eb90610481565b60405180910390fd5b610100600183836102f1565b507fea8482eb24fdcbd88250f9fd14644f201467fcaf3c5f08a0675ed9d46977ae3b82826040516101329291906104b6565b60405180910390a15050565b6000546001600160a01b031633146101685760405162461bcd60e51b81526004016100eb90610481565b61017260006102a1565b565b606060018054610183906104e5565b80601f01602080910402602001604051908101604052809291908181526020018280546101af906104e5565b80156101fc5780601f106101d1576101008083540402835291602001916101fc565b820191906000526020600020905b8154815290600101906020018083116101df57829003601f168201915b5050505050905090565b6000546001600160a01b031633146102305760405162461bcd60e51b81526004016100eb90610481565b6001600160a01b0381166102955760405162461bcd60e51b815260206004820152602660248201527f4f776e61626c653a206e6577206f776e657220697320746865207a65726f206160448201526564647265737360d01b60648201526084016100eb565b61029e816102a1565b50565b600080546001600160a01b038381166001600160a01b0319831681178455604051919092169283917f8be0079c531659141344cd1fd0a4f28419497f9722a3daafe3b4186f6b6457e09190a35050565b8280546102fd906104e5565b90600052602060002090601f01602090048101928261031f5760008555610365565b82601f106103385782800160ff19823516178555610365565b82800160010185558215610365579182015b8281111561036557823582559160200191906001019061034a565b50610371929150610375565b5090565b5b808211156103715760008155600101610376565b6000806020838503121561039d57600080fd5b823567ffffffffffffffff808211156103b557600080fd5b818501915085601f8301126103c957600080fd5b8135818111156103d857600080fd5b8660208285010111156103ea57600080fd5b60209290920196919550909350505050565b600060208083528351808285015260005b818110156104295785810183015185820160400152820161040d565b8181111561043b576000604083870101525b50601f01601f1916929092016040019392505050565b60006020828403121561046357600080fd5b81356001600160a01b038116811461047a57600080fd5b9392505050565b6020808252818101527f4f776e61626c653a2063616c6c6572206973206e6f7420746865206f776e6572604082015260600190565b60208152816020820152818360408301376000818301604090810191909152601f909201601f19160101919050565b600181811c908216806104f957607f821691505b6020821081141561051a57634e487b7160e01b600052602260045260246000fd5b5091905056fea26469706673582212200857576b9753c0a3c2fdc94f8439b158de714550b06ebe8bc4ea692475c9dde864736f6c63430008090033",
  "devdoc": {
    "kind": "dev",
    "methods": {
      "owner()": {
        "details": "Returns the address of the current owner."
      },
      "renounceOwnership()": {
        "details": "Leaves the contract without owner. It will not be possible to call `onlyOwner` functions anymore. Can only be called by the current owner. NOTE: Renouncing ownership will leave the contract without an owner, thereby removing any functionality that is only available to the owner."
      },
      "transferOwnership(address)": {
        "details": "Transfers ownership of the contract to a new account (`newOwner`). Can only be called by the current owner."
      }
    },
    "version": 1
  },
  "userdoc": {
    "kind": "user",
    "methods": {},
    "version": 1
  },
  "storageLayout": {
    "storage": [
      {
        "astId": 435,
        "contract": "contracts/ColorBox.sol:ColorBox",
        "label": "_owner",
        "offset": 0,
        "slot": "0",
        "type": "t_address"
      },
      {
        "astId": 7522,
        "contract": "contracts/ColorBox.sol:ColorBox",
        "label": "color",
        "offset": 0,
        "slot": "1",
        "type": "t_string_storage"
      }
    ],
    "types": {
      "t_address": {
        "encoding": "inplace",
        "label": "address",
        "numberOfBytes": "20"
      },
      "t_string_storage": {
        "encoding": "bytes",
        "label": "string",
        "numberOfBytes": "32"
      }
    }
  }
}