{
  "address": "0x5b6b9559fc1FCbC54520a5A63Ccd568dA2295aC3",
  "abi": [
    {
      "inputs": [
        {
          "internalType": "contract IVotes",
          "name": "_token",
          "type": "address"
        },
        {
          "internalType": "contract TimelockController",
          "name": "_timelock",
          "type": "address"
        },
        {
          "internalType": "uint256",
          "name": "_blockVotingDelay",
          "type": "uint256"
        },
        {
          "internalType": "uint256",
          "name": "_blockVotingPeriod",
          "type": "uint256"
        },
        {
          "internalType": "uint256",
          "name": "_votingQuorumPercentage",
          "type": "uint256"
        }
      ],
      "stateMutability": "nonpayable",
      "type": "constructor"
    },
    {
      "anonymous": false,
      "inputs": [
        {
          "indexed": false,
          "internalType": "uint256",
          "name": "proposalId",
          "type": "uint256"
        }
      ],
      "name": "ProposalCanceled",
      "type": "event"
    },
    {
      "anonymous": false,
      "inputs": [
        {
          "indexed": false,
          "internalType": "uint256",
          "name": "proposalId",
          "type": "uint256"
        },
        {
          "indexed": false,
          "internalType": "address",
          "name": "proposer",
          "type": "address"
        },
        {
          "indexed": false,
          "internalType": "address[]",
          "name": "targets",
          "type": "address[]"
        },
        {
          "indexed": false,
          "internalType": "uint256[]",
          "name": "values",
          "type": "uint256[]"
        },
        {
          "indexed": false,
          "internalType": "string[]",
          "name": "signatures",
          "type": "string[]"
        },
        {
          "indexed": false,
          "internalType": "bytes[]",
          "name": "calldatas",
          "type": "bytes[]"
        },
        {
          "indexed": false,
          "internalType": "uint256",
          "name": "startBlock",
          "type": "uint256"
        },
        {
          "indexed": false,
          "internalType": "uint256",
          "name": "endBlock",
          "type": "uint256"
        },
        {
          "indexed": false,
          "internalType": "string",
          "name": "description",
          "type": "string"
        }
      ],
      "name": "ProposalCreated",
      "type": "event"
    },
    {
      "anonymous": false,
      "inputs": [
        {
          "indexed": false,
          "internalType": "uint256",
          "name": "proposalId",
          "type": "uint256"
        }
      ],
      "name": "ProposalExecuted",
      "type": "event"
    },
    {
      "anonymous": false,
      "inputs": [
        {
          "indexed": false,
          "internalType": "uint256",
          "name": "proposalId",
          "type": "uint256"
        },
        {
          "indexed": false,
          "internalType": "uint256",
          "name": "eta",
          "type": "uint256"
        }
      ],
      "name": "ProposalQueued",
      "type": "event"
    },
    {
      "anonymous": false,
      "inputs": [
        {
          "indexed": false,
          "internalType": "uint256",
          "name": "oldProposalThreshold",
          "type": "uint256"
        },
        {
          "indexed": false,
          "internalType": "uint256",
          "name": "newProposalThreshold",
          "type": "uint256"
        }
      ],
      "name": "ProposalThresholdSet",
      "type": "event"
    },
    {
      "anonymous": false,
      "inputs": [
        {
          "indexed": false,
          "internalType": "uint256",
          "name": "oldQuorumNumerator",
          "type": "uint256"
        },
        {
          "indexed": false,
          "internalType": "uint256",
          "name": "newQuorumNumerator",
          "type": "uint256"
        }
      ],
      "name": "QuorumNumeratorUpdated",
      "type": "event"
    },
    {
      "anonymous": false,
      "inputs": [
        {
          "indexed": false,
          "internalType": "address",
          "name": "oldTimelock",
          "type": "address"
        },
        {
          "indexed": false,
          "internalType": "address",
          "name": "newTimelock",
          "type": "address"
        }
      ],
      "name": "TimelockChange",
      "type": "event"
    },
    {
      "anonymous": false,
      "inputs": [
        {
          "indexed": true,
          "internalType": "address",
          "name": "voter",
          "type": "address"
        },
        {
          "indexed": false,
          "internalType": "uint256",
          "name": "proposalId",
          "type": "uint256"
        },
        {
          "indexed": false,
          "internalType": "uint8",
          "name": "support",
          "type": "uint8"
        },
        {
          "indexed": false,
          "internalType": "uint256",
          "name": "weight",
          "type": "uint256"
        },
        {
          "indexed": false,
          "internalType": "string",
          "name": "reason",
          "type": "string"
        }
      ],
      "name": "VoteCast",
      "type": "event"
    },
    {
      "anonymous": false,
      "inputs": [
        {
          "indexed": false,
          "internalType": "uint256",
          "name": "oldVotingDelay",
          "type": "uint256"
        },
        {
          "indexed": false,
          "internalType": "uint256",
          "name": "newVotingDelay",
          "type": "uint256"
        }
      ],
      "name": "VotingDelaySet",
      "type": "event"
    },
    {
      "anonymous": false,
      "inputs": [
        {
          "indexed": false,
          "internalType": "uint256",
          "name": "oldVotingPeriod",
          "type": "uint256"
        },
        {
          "indexed": false,
          "internalType": "uint256",
          "name": "newVotingPeriod",
          "type": "uint256"
        }
      ],
      "name": "VotingPeriodSet",
      "type": "event"
    },
    {
      "inputs": [],
      "name": "BALLOT_TYPEHASH",
      "outputs": [
        {
          "internalType": "bytes32",
          "name": "",
          "type": "bytes32"
        }
      ],
      "stateMutability": "view",
      "type": "function"
    },
    {
      "inputs": [],
      "name": "COUNTING_MODE",
      "outputs": [
        {
          "internalType": "string",
          "name": "",
          "type": "string"
        }
      ],
      "stateMutability": "pure",
      "type": "function"
    },
    {
      "inputs": [
        {
          "internalType": "uint256",
          "name": "proposalId",
          "type": "uint256"
        },
        {
          "internalType": "uint8",
          "name": "support",
          "type": "uint8"
        }
      ],
      "name": "castVote",
      "outputs": [
        {
          "internalType": "uint256",
          "name": "",
          "type": "uint256"
        }
      ],
      "stateMutability": "nonpayable",
      "type": "function"
    },
    {
      "inputs": [
        {
          "internalType": "uint256",
          "name": "proposalId",
          "type": "uint256"
        },
        {
          "internalType": "uint8",
          "name": "support",
          "type": "uint8"
        },
        {
          "internalType": "uint8",
          "name": "v",
          "type": "uint8"
        },
        {
          "internalType": "bytes32",
          "name": "r",
          "type": "bytes32"
        },
        {
          "internalType": "bytes32",
          "name": "s",
          "type": "bytes32"
        }
      ],
      "name": "castVoteBySig",
      "outputs": [
        {
          "internalType": "uint256",
          "name": "",
          "type": "uint256"
        }
      ],
      "stateMutability": "nonpayable",
      "type": "function"
    },
    {
      "inputs": [
        {
          "internalType": "uint256",
          "name": "proposalId",
          "type": "uint256"
        },
        {
          "internalType": "uint8",
          "name": "support",
          "type": "uint8"
        },
        {
          "internalType": "string",
          "name": "reason",
          "type": "string"
        }
      ],
      "name": "castVoteWithReason",
      "outputs": [
        {
          "internalType": "uint256",
          "name": "",
          "type": "uint256"
        }
      ],
      "stateMutability": "nonpayable",
      "type": "function"
    },
    {
      "inputs": [
        {
          "internalType": "address[]",
          "name": "targets",
          "type": "address[]"
        },
        {
          "internalType": "uint256[]",
          "name": "values",
          "type": "uint256[]"
        },
        {
          "internalType": "bytes[]",
          "name": "calldatas",
          "type": "bytes[]"
        },
        {
          "internalType": "bytes32",
          "name": "descriptionHash",
          "type": "bytes32"
        }
      ],
      "name": "execute",
      "outputs": [
        {
          "internalType": "uint256",
          "name": "",
          "type": "uint256"
        }
      ],
      "stateMutability": "payable",
      "type": "function"
    },
    {
      "inputs": [],
      "name": "getAllProposalsId",
      "outputs": [
        {
          "internalType": "uint256[]",
          "name": "",
          "type": "uint256[]"
        }
      ],
      "stateMutability": "view",
      "type": "function"
    },
    {
      "inputs": [
        {
          "internalType": "uint256",
          "name": "proposalId",
          "type": "uint256"
        }
      ],
      "name": "getProposal",
      "outputs": [
        {
          "components": [
            {
              "internalType": "address[]",
              "name": "targets",
              "type": "address[]"
            },
            {
              "internalType": "uint256[]",
              "name": "values",
              "type": "uint256[]"
            },
            {
              "internalType": "bytes[]",
              "name": "calldatas",
              "type": "bytes[]"
            },
            {
              "internalType": "string",
              "name": "description",
              "type": "string"
            }
          ],
          "internalType": "struct GovernanceOrchestrator.ClearProposal",
          "name": "",
          "type": "tuple"
        }
      ],
      "stateMutability": "view",
      "type": "function"
    },
    {
      "inputs": [
        {
          "internalType": "address",
          "name": "account",
          "type": "address"
        },
        {
          "internalType": "uint256",
          "name": "blockNumber",
          "type": "uint256"
        }
      ],
      "name": "getVotes",
      "outputs": [
        {
          "internalType": "uint256",
          "name": "",
          "type": "uint256"
        }
      ],
      "stateMutability": "view",
      "type": "function"
    },
    {
      "inputs": [
        {
          "internalType": "uint256",
          "name": "proposalId",
          "type": "uint256"
        },
        {
          "internalType": "address",
          "name": "account",
          "type": "address"
        }
      ],
      "name": "hasVoted",
      "outputs": [
        {
          "internalType": "bool",
          "name": "",
          "type": "bool"
        }
      ],
      "stateMutability": "view",
      "type": "function"
    },
    {
      "inputs": [
        {
          "internalType": "address[]",
          "name": "targets",
          "type": "address[]"
        },
        {
          "internalType": "uint256[]",
          "name": "values",
          "type": "uint256[]"
        },
        {
          "internalType": "bytes[]",
          "name": "calldatas",
          "type": "bytes[]"
        },
        {
          "internalType": "bytes32",
          "name": "descriptionHash",
          "type": "bytes32"
        }
      ],
      "name": "hashProposal",
      "outputs": [
        {
          "internalType": "uint256",
          "name": "",
          "type": "uint256"
        }
      ],
      "stateMutability": "pure",
      "type": "function"
    },
    {
      "inputs": [],
      "name": "name",
      "outputs": [
        {
          "internalType": "string",
          "name": "",
          "type": "string"
        }
      ],
      "stateMutability": "view",
      "type": "function"
    },
    {
      "inputs": [
        {
          "internalType": "uint256",
          "name": "proposalId",
          "type": "uint256"
        }
      ],
      "name": "proposalDeadline",
      "outputs": [
        {
          "internalType": "uint256",
          "name": "",
          "type": "uint256"
        }
      ],
      "stateMutability": "view",
      "type": "function"
    },
    {
      "inputs": [
        {
          "internalType": "uint256",
          "name": "proposalId",
          "type": "uint256"
        }
      ],
      "name": "proposalEta",
      "outputs": [
        {
          "internalType": "uint256",
          "name": "",
          "type": "uint256"
        }
      ],
      "stateMutability": "view",
      "type": "function"
    },
    {
      "inputs": [
        {
          "internalType": "uint256",
          "name": "proposalId",
          "type": "uint256"
        }
      ],
      "name": "proposalSnapshot",
      "outputs": [
        {
          "internalType": "uint256",
          "name": "",
          "type": "uint256"
        }
      ],
      "stateMutability": "view",
      "type": "function"
    },
    {
      "inputs": [],
      "name": "proposalThreshold",
      "outputs": [
        {
          "internalType": "uint256",
          "name": "",
          "type": "uint256"
        }
      ],
      "stateMutability": "view",
      "type": "function"
    },
    {
      "inputs": [
        {
          "internalType": "uint256",
          "name": "proposalId",
          "type": "uint256"
        }
      ],
      "name": "proposalVotes",
      "outputs": [
        {
          "internalType": "uint256",
          "name": "againstVotes",
          "type": "uint256"
        },
        {
          "internalType": "uint256",
          "name": "forVotes",
          "type": "uint256"
        },
        {
          "internalType": "uint256",
          "name": "abstainVotes",
          "type": "uint256"
        }
      ],
      "stateMutability": "view",
      "type": "function"
    },
    {
      "inputs": [
        {
          "internalType": "uint256",
          "name": "",
          "type": "uint256"
        }
      ],
      "name": "proposalsId",
      "outputs": [
        {
          "internalType": "uint256",
          "name": "",
          "type": "uint256"
        }
      ],
      "stateMutability": "view",
      "type": "function"
    },
    {
      "inputs": [
        {
          "internalType": "address[]",
          "name": "targets",
          "type": "address[]"
        },
        {
          "internalType": "uint256[]",
          "name": "values",
          "type": "uint256[]"
        },
        {
          "internalType": "bytes[]",
          "name": "calldatas",
          "type": "bytes[]"
        },
        {
          "internalType": "string",
          "name": "description",
          "type": "string"
        }
      ],
      "name": "propose",
      "outputs": [
        {
          "internalType": "uint256",
          "name": "",
          "type": "uint256"
        }
      ],
      "stateMutability": "nonpayable",
      "type": "function"
    },
    {
      "inputs": [
        {
          "internalType": "address[]",
          "name": "targets",
          "type": "address[]"
        },
        {
          "internalType": "uint256[]",
          "name": "values",
          "type": "uint256[]"
        },
        {
          "internalType": "bytes[]",
          "name": "calldatas",
          "type": "bytes[]"
        },
        {
          "internalType": "bytes32",
          "name": "descriptionHash",
          "type": "bytes32"
        }
      ],
      "name": "queue",
      "outputs": [
        {
          "internalType": "uint256",
          "name": "",
          "type": "uint256"
        }
      ],
      "stateMutability": "nonpayable",
      "type": "function"
    },
    {
      "inputs": [
        {
          "internalType": "uint256",
          "name": "blockNumber",
          "type": "uint256"
        }
      ],
      "name": "quorum",
      "outputs": [
        {
          "internalType": "uint256",
          "name": "",
          "type": "uint256"
        }
      ],
      "stateMutability": "view",
      "type": "function"
    },
    {
      "inputs": [],
      "name": "quorumDenominator",
      "outputs": [
        {
          "internalType": "uint256",
          "name": "",
          "type": "uint256"
        }
      ],
      "stateMutability": "view",
      "type": "function"
    },
    {
      "inputs": [],
      "name": "quorumNumerator",
      "outputs": [
        {
          "internalType": "uint256",
          "name": "",
          "type": "uint256"
        }
      ],
      "stateMutability": "view",
      "type": "function"
    },
    {
      "inputs": [
        {
          "internalType": "address",
          "name": "target",
          "type": "address"
        },
        {
          "internalType": "uint256",
          "name": "value",
          "type": "uint256"
        },
        {
          "internalType": "bytes",
          "name": "data",
          "type": "bytes"
        }
      ],
      "name": "relay",
      "outputs": [],
      "stateMutability": "nonpayable",
      "type": "function"
    },
    {
      "inputs": [
        {
          "internalType": "uint256",
          "name": "newProposalThreshold",
          "type": "uint256"
        }
      ],
      "name": "setProposalThreshold",
      "outputs": [],
      "stateMutability": "nonpayable",
      "type": "function"
    },
    {
      "inputs": [
        {
          "internalType": "uint256",
          "name": "newVotingDelay",
          "type": "uint256"
        }
      ],
      "name": "setVotingDelay",
      "outputs": [],
      "stateMutability": "nonpayable",
      "type": "function"
    },
    {
      "inputs": [
        {
          "internalType": "uint256",
          "name": "newVotingPeriod",
          "type": "uint256"
        }
      ],
      "name": "setVotingPeriod",
      "outputs": [],
      "stateMutability": "nonpayable",
      "type": "function"
    },
    {
      "inputs": [
        {
          "internalType": "uint256",
          "name": "proposalId",
          "type": "uint256"
        }
      ],
      "name": "state",
      "outputs": [
        {
          "internalType": "enum IGovernor.ProposalState",
          "name": "",
          "type": "uint8"
        }
      ],
      "stateMutability": "view",
      "type": "function"
    },
    {
      "inputs": [
        {
          "internalType": "bytes4",
          "name": "interfaceId",
          "type": "bytes4"
        }
      ],
      "name": "supportsInterface",
      "outputs": [
        {
          "internalType": "bool",
          "name": "",
          "type": "bool"
        }
      ],
      "stateMutability": "view",
      "type": "function"
    },
    {
      "inputs": [],
      "name": "timelock",
      "outputs": [
        {
          "internalType": "address",
          "name": "",
          "type": "address"
        }
      ],
      "stateMutability": "view",
      "type": "function"
    },
    {
      "inputs": [],
      "name": "token",
      "outputs": [
        {
          "internalType": "contract IVotes",
          "name": "",
          "type": "address"
        }
      ],
      "stateMutability": "view",
      "type": "function"
    },
    {
      "inputs": [
        {
          "internalType": "uint256",
          "name": "newQuorumNumerator",
          "type": "uint256"
        }
      ],
      "name": "updateQuorumNumerator",
      "outputs": [],
      "stateMutability": "nonpayable",
      "type": "function"
    },
    {
      "inputs": [
        {
          "internalType": "contract TimelockController",
          "name": "newTimelock",
          "type": "address"
        }
      ],
      "name": "updateTimelock",
      "outputs": [],
      "stateMutability": "nonpayable",
      "type": "function"
    },
    {
      "inputs": [],
      "name": "version",
      "outputs": [
        {
          "internalType": "string",
          "name": "",
          "type": "string"
        }
      ],
      "stateMutability": "view",
      "type": "function"
    },
    {
      "inputs": [],
      "name": "votingDelay",
      "outputs": [
        {
          "internalType": "uint256",
          "name": "",
          "type": "uint256"
        }
      ],
      "stateMutability": "view",
      "type": "function"
    },
    {
      "inputs": [],
      "name": "votingPeriod",
      "outputs": [
        {
          "internalType": "uint256",
          "name": "",
          "type": "uint256"
        }
      ],
      "stateMutability": "view",
      "type": "function"
    },
    {
      "stateMutability": "payable",
      "type": "receive"
    }
  ],
  "transactionHash": "0xed7d851a7dad4a5189786441bb14fe552b5cbfad8d757195c31621c1e5a053b9",
  "args": [
    "0xEcb87dd4B2f02d9a748356F92E6d71285229d589",
    "0x1e67BF6Ac4F7021a081F4E83d3aDF303A3C7887B",
    4,
    16,
    0
  ],
  "numDeployments": 1,
  "solcInputHash": "ab0aa8fb554df5a9e6e7f58c60c1f6cf",
  "bytecode": "0x6101606040523480156200001257600080fd5b50604051620039bf380380620039bf8339810160408190526200003591620004b6565b838186858560006040518060400160405280601681526020017f476f7665726e616e63654f7263686573747261746f720000000000000000000081525080620000836200018060201b60201c565b815160208084019190912082518383012060e08290526101008190524660a0818152604080517f8b73c3c69bb8fe3d512ecc4cf759cc79239f7b179b0ffacaa9a75d522b39400f81880181905281830187905260608201869052608082019490945230818401528151808203909301835260c00190528051940193909320919290916080523060c0526101205250508251620001299250600091506020840190620003f7565b50620001379050836200019b565b6200014282620001dc565b6200014d8162000283565b5050506001600160a01b0316610140526200016881620002c4565b5062000174816200038e565b5050505050506200054b565b6040805180820190915260018152603160f81b602082015290565b60025460408051918252602082018390527fc565b045403dc03c2eea82b81a0465edad9e2e7fc4d97e11421c209da93d7a93910160405180910390a1600255565b60008111620002425760405162461bcd60e51b815260206004820152602760248201527f476f7665726e6f7253657474696e67733a20766f74696e6720706572696f6420604482015266746f6f206c6f7760c81b60648201526084015b60405180910390fd5b60035460408051918252602082018390527f7e3f7f0708a84de9203036abaa450dccc85ad5ff52f78c170f3edb55cf5e8828910160405180910390a1600355565b60045460408051918252602082018390527fccb45da8d5717e6c4544694297c4ba5cf151d455c9bb0ed4fc7a38411bc05461910160405180910390a1600455565b6064811115620003495760405162461bcd60e51b815260206004820152604360248201527f476f7665726e6f72566f74657351756f72756d4672616374696f6e3a2071756f60448201527f72756d4e756d657261746f72206f7665722071756f72756d44656e6f6d696e616064820152623a37b960e91b608482015260a40162000239565b600680549082905560408051828152602081018490527f0553476bf02ef2726e8ce5ced78d63e26e602e4a2257b1f559418e24b4633997910160405180910390a15050565b600754604080516001600160a01b03928316815291831660208301527f08f74ea46ef7894f65eabfb5e6e695de773a000b47c529ab559178069b226401910160405180910390a1600780546001600160a01b0319166001600160a01b0392909216919091179055565b82805462000405906200050e565b90600052602060002090601f01602090048101928262000429576000855562000474565b82601f106200044457805160ff191683800117855562000474565b8280016001018555821562000474579182015b828111156200047457825182559160200191906001019062000457565b506200048292915062000486565b5090565b5b8082111562000482576000815560010162000487565b6001600160a01b0381168114620004b357600080fd5b50565b600080600080600060a08688031215620004cf57600080fd5b8551620004dc816200049d565b6020870151909550620004ef816200049d565b6040870151606088015160809098015196999198509695945092505050565b600181811c908216806200052357607f821691505b602082108114156200054557634e487b7160e01b600052602260045260246000fd5b50919050565b60805160a05160c05160e05161010051610120516101405161340b620005b46000396000818161075e01528181611bae0152611c8801526000611e5101526000611ea001526000611e7b01526000611dd401526000611dfe01526000611e28015261340b6000f3fe6080604052600436106102135760003560e01c806397c3d33411610118578063c7f758a8116100a0578063ea0217cf1161006f578063ea0217cf146106cc578063eb9019d4146106ec578063ece40cc11461070c578063f8ce560a1461072c578063fc0c546a1461074c57600080fd5b8063c7f758a8146105f3578063d33219b414610620578063dd4e2ba514610652578063deaaa7cc1461069857600080fd5b8063ab58fb8e116100e7578063ab58fb8e1461055e578063b58131b01461057e578063c01f9e3714610593578063c28bc2fa146105b3578063c59057e4146105d357600080fd5b806397c3d334146104f357806399a1d8db14610507578063a7713a7014610529578063a890c9101461053e57600080fd5b80633e4f49e61161019b57806354fd4d501161016a57806354fd4d5014610449578063567813881461047357806370b0f660146104935780637b3c71d3146104b35780637d5e81e2146104d357600080fd5b80633e4f49e61461035d578063438596321461038a578063476c8801146103d4578063544ffc9c146103f457600080fd5b8063160cbed7116101e2578063160cbed7146102d55780632656227d146102f55780632d63f693146103085780633932abb1146103285780633bccf4fd1461033d57600080fd5b806301ffc9a71461023b57806302a251a31461027057806306f3f9e61461029357806306fdde03146102b357600080fd5b366102365730610221610780565b6001600160a01b03161461023457600080fd5b005b600080fd5b34801561024757600080fd5b5061025b6102563660046127f7565b610799565b60405190151581526020015b60405180910390f35b34801561027c57600080fd5b506102856107aa565b604051908152602001610267565b34801561029f57600080fd5b506102346102ae366004612821565b6107b5565b3480156102bf57600080fd5b506102c8610802565b6040516102679190612896565b3480156102e157600080fd5b506102856102f0366004612ae1565b610894565b610285610303366004612ae1565b610ab2565b34801561031457600080fd5b50610285610323366004612821565b610b85565b34801561033457600080fd5b50610285610bbc565b34801561034957600080fd5b50610285610358366004612b86565b610bc7565b34801561036957600080fd5b5061037d610378366004612821565b610c5b565b6040516102679190612bea565b34801561039657600080fd5b5061025b6103a5366004612c12565b60008281526005602090815260408083206001600160a01b038516845260030190915290205460ff1692915050565b3480156103e057600080fd5b506102856103ef366004612821565b610c66565b34801561040057600080fd5b5061042e61040f366004612821565b6000908152600560205260409020805460018201546002909201549092565b60408051938452602084019290925290820152606001610267565b34801561045557600080fd5b506040805180820190915260018152603160f81b60208201526102c8565b34801561047f57600080fd5b5061028561048e366004612c42565b610c87565b34801561049f57600080fd5b506102346104ae366004612821565b610cb0565b3480156104bf57600080fd5b506102856104ce366004612cb6565b610cf1565b3480156104df57600080fd5b506102856104ee366004612d0f565b610d43565b3480156104ff57600080fd5b506064610285565b34801561051357600080fd5b5061051c610e28565b6040516102679190612e0a565b34801561053557600080fd5b50600654610285565b34801561054a57600080fd5b50610234610559366004612e1d565b610e7f565b34801561056a57600080fd5b50610285610579366004612821565b610ec0565b34801561058a57600080fd5b50610285610f6a565b34801561059f57600080fd5b506102856105ae366004612821565b610f75565b3480156105bf57600080fd5b506102346105ce366004612e3a565b610fa4565b3480156105df57600080fd5b506102856105ee366004612ae1565b611025565b3480156105ff57600080fd5b5061061361060e366004612821565b61105f565b6040516102679190612efe565b34801561062c57600080fd5b506007546001600160a01b03165b6040516001600160a01b039091168152602001610267565b34801561065e57600080fd5b506040805180820190915260208082527f737570706f72743d627261766f2671756f72756d3d666f722c6162737461696e908201526102c8565b3480156106a457600080fd5b506102857f150214d74d59b7d1e90c73fc22ef3d991dd0a76b046543d4d80ab92d2a50328f81565b3480156106d857600080fd5b506102346106e7366004612821565b6112c7565b3480156106f857600080fd5b50610285610707366004612f7c565b611308565b34801561071857600080fd5b50610234610727366004612821565b611314565b34801561073857600080fd5b50610285610747366004612821565b611355565b34801561075857600080fd5b5061063a7f000000000000000000000000000000000000000000000000000000000000000081565b60006107946007546001600160a01b031690565b905090565b60006107a482611360565b92915050565b600061079460035490565b6107bd610780565b6001600160a01b0316336001600160a01b0316146107f65760405162461bcd60e51b81526004016107ed90612fa8565b60405180910390fd5b6107ff81611385565b50565b60606000805461081190612fdf565b80601f016020809104026020016040519081016040528092919081815260200182805461083d90612fdf565b801561088a5780601f1061085f5761010080835404028352916020019161088a565b820191906000526020600020905b81548152906001019060200180831161086d57829003601f168201915b5050505050905090565b6000806108a386868686611025565b905060046108b082610c5b565b60078111156108c1576108c1612bd4565b146108de5760405162461bcd60e51b81526004016107ed9061301a565b6007546040805163793d064960e11b815290516000926001600160a01b03169163f27a0c92916004808301926020929190829003018186803b15801561092357600080fd5b505afa158015610937573d6000803e3d6000fd5b505050506040513d601f19601f8201168201806040525081019061095b919061305b565b60075460405163b1c5f42760e01b81529192506001600160a01b03169063b1c5f42790610995908a908a908a906000908b90600401613074565b60206040518083038186803b1580156109ad57600080fd5b505afa1580156109c1573d6000803e3d6000fd5b505050506040513d601f19601f820116820180604052508101906109e5919061305b565b6000838152600860205260408082209290925560075491516308f2a0bb60e41b81526001600160a01b0390921691638f2a0bb091610a30918b918b918b91908b9089906004016130c2565b600060405180830381600087803b158015610a4a57600080fd5b505af1158015610a5e573d6000803e3d6000fd5b505050507f9a2e42fd6722813d69113e7d0079d3d940171428df7373df9c7f7617cfda2892828242610a909190613130565b6040805192835260208301919091520160405180910390a15095945050505050565b600080610ac186868686611025565b90506000610ace82610c5b565b90506004816007811115610ae457610ae4612bd4565b1480610b0157506005816007811115610aff57610aff612bd4565b145b610b1d5760405162461bcd60e51b81526004016107ed9061301a565b600082815260016020818152604092839020600201805460ff191690921790915590518381527f712ae1383f79ac853f8d882153778e0260ef8f03b504e2866e0593e04d2b291f910160405180910390a1610b7b828888888861144d565b5095945050505050565b60008181526001602090815260408083208151928301909152546001600160401b0316908190525b6001600160401b031692915050565b600061079460025490565b604080517f150214d74d59b7d1e90c73fc22ef3d991dd0a76b046543d4d80ab92d2a50328f602082015290810186905260ff851660608201526000908190610c3390610c2b906080016040516020818303038152906040528051906020012061145a565b8686866114a8565b9050610c50878288604051806020016040528060008152506114c6565b979650505050505050565b60006107a4826115d1565b60098181548110610c7657600080fd5b600091825260209091200154905081565b600080339050610ca8848285604051806020016040528060008152506114c6565b949350505050565b610cb8610780565b6001600160a01b0316336001600160a01b031614610ce85760405162461bcd60e51b81526004016107ed90612fa8565b6107ff81611739565b600080339050610d3986828787878080601f0160208091040260200160405190810160405280939291908181526020018383808284376000920191909152506114c692505050565b9695505050505050565b600080610d528686868661177a565b60098054600181019091557f6e1540171b6c0c960b71a7020d9f60077f6af931a8bbf590da0223dacf75c7af01819055604080516080810182528881526020818101899052818301889052606082018790526000848152600a8252929092208151805194955091939092610dca928492910190612623565b506020828101518051610de39260018501920190612684565b5060408201518051610dff9160028401916020909101906126bf565b5060608201518051610e1b916003840191602090910190612718565b5091979650505050505050565b6060600980548060200260200160405190810160405280929190818152602001828054801561088a57602002820191906000526020600020905b815481526020019060010190808311610e62575050505050905090565b610e87610780565b6001600160a01b0316336001600160a01b031614610eb75760405162461bcd60e51b81526004016107ed90612fa8565b6107ff81611a55565b60075460008281526008602052604080822054905163d45c443560e01b81526004810191909152909182916001600160a01b039091169063d45c44359060240160206040518083038186803b158015610f1857600080fd5b505afa158015610f2c573d6000803e3d6000fd5b505050506040513d601f19601f82011682018060405250810190610f50919061305b565b905080600114610f605780610f63565b60005b9392505050565b600061079460045490565b60008181526001602081815260408084208151928301909152909101546001600160401b031690819052610bad565b610fac610780565b6001600160a01b0316336001600160a01b031614610fdc5760405162461bcd60e51b81526004016107ed90612fa8565b61101e8483838080601f016020809104026020016040519081016040528093929190818152602001838380828437600092019190915250889250611abe915050565b5050505050565b60008484848460405160200161103e9493929190613148565b60408051601f19818403018152919052805160209091012095945050505050565b61108a6040518060800160405280606081526020016060815260200160608152602001606081525090565b6000828152600a60209081526040918290208251815460a0938102820184019094526080810184815290939192849284918401828280156110f457602002820191906000526020600020905b81546001600160a01b031681526001909101906020018083116110d6575b505050505081526020016001820180548060200260200160405190810160405280929190818152602001828054801561114c57602002820191906000526020600020905b815481526020019060010190808311611138575b5050505050815260200160028201805480602002602001604051908101604052809291908181526020016000905b8282101561122657838290600052602060002001805461119990612fdf565b80601f01602080910402602001604051908101604052809291908181526020018280546111c590612fdf565b80156112125780601f106111e757610100808354040283529160200191611212565b820191906000526020600020905b8154815290600101906020018083116111f557829003601f168201915b50505050508152602001906001019061117a565b50505050815260200160038201805461123e90612fdf565b80601f016020809104026020016040519081016040528092919081815260200182805461126a90612fdf565b80156112b75780601f1061128c576101008083540402835291602001916112b7565b820191906000526020600020905b81548152906001019060200180831161129a57829003601f168201915b5050505050815250509050919050565b6112cf610780565b6001600160a01b0316336001600160a01b0316146112ff5760405162461bcd60e51b81526004016107ed90612fa8565b6107ff81611ae4565b6000610f638383611b85565b61131c610780565b6001600160a01b0316336001600160a01b03161461134c5760405162461bcd60e51b81526004016107ed90612fa8565b6107ff81611c2a565b60006107a482611c6b565b60006001600160e01b03198216636e665ced60e01b14806107a457506107a482611d1e565b60648111156114085760405162461bcd60e51b815260206004820152604360248201527f476f7665726e6f72566f74657351756f72756d4672616374696f6e3a2071756f60448201527f72756d4e756d657261746f72206f7665722071756f72756d44656e6f6d696e616064820152623a37b960e91b608482015260a4016107ed565b600680549082905560408051828152602081018490527f0553476bf02ef2726e8ce5ced78d63e26e602e4a2257b1f559418e24b4633997910160405180910390a15050565b61101e8585858585611d53565b60006107a4611467611dc7565b8360405161190160f01b6020820152602281018390526042810182905260009060620160405160208183030381529060405280519060200120905092915050565b60008060006114b987878787611eee565b91509150610b7b81611fdb565b60008481526001602081905260408220906114e087610c5b565b60078111156114f1576114f1612bd4565b1461154a5760405162461bcd60e51b815260206004820152602360248201527f476f7665726e6f723a20766f7465206e6f742063757272656e746c792061637460448201526269766560e81b60648201526084016107ed565b604080516020810190915281546001600160401b031690819052600090611572908790611308565b905061158087878784612196565b856001600160a01b03167fb8e138887d0aa13bab447e82de9d5c1777041ecd21ca36ba824ff1e6c07ddda4888784886040516115bf9493929190613193565b60405180910390a29695505050505050565b6000806115dd83612315565b905060048160078111156115f3576115f3612bd4565b146115fe5792915050565b60008381526008602052604090205480611619575092915050565b600754604051632ab0f52960e01b8152600481018390526001600160a01b0390911690632ab0f5299060240160206040518083038186803b15801561165d57600080fd5b505afa158015611671573d6000803e3d6000fd5b505050506040513d601f19601f8201168201806040525081019061169591906131bb565b156116a4575060079392505050565b600754604051632c258a9f60e11b8152600481018390526001600160a01b039091169063584b153e9060240160206040518083038186803b1580156116e857600080fd5b505afa1580156116fc573d6000803e3d6000fd5b505050506040513d601f19601f8201168201806040525081019061172091906131bb565b1561172f575060059392505050565b5060029392505050565b60025460408051918252602082018390527fc565b045403dc03c2eea82b81a0465edad9e2e7fc4d97e11421c209da93d7a93910160405180910390a1600255565b6000611784610f6a565b611793336107076001436131dd565b10156118135760405162461bcd60e51b815260206004820152604360248201527f476f7665726e6f72436f6d7061746962696c697479427261766f3a2070726f7060448201527f6f73657220766f7465732062656c6f772070726f706f73616c207468726573686064820152621bdb1960ea1b608482015260a4016107ed565b60006118288686868680519060200120611025565b9050845186511461184b5760405162461bcd60e51b81526004016107ed906131f4565b835186511461186c5760405162461bcd60e51b81526004016107ed906131f4565b60008651116118bd5760405162461bcd60e51b815260206004820152601860248201527f476f7665726e6f723a20656d7074792070726f706f73616c000000000000000060448201526064016107ed565b600081815260016020908152604091829020825191820190925281546001600160401b0316908190521561193d5760405162461bcd60e51b815260206004820152602160248201527f476f7665726e6f723a2070726f706f73616c20616c72656164792065786973746044820152607360f81b60648201526084016107ed565b600061194f61194a610bbc565b612421565b61195843612421565b6119629190613235565b9050600061197161194a6107aa565b61197b9083613235565b835467ffffffffffffffff19166001600160401b038416178455905060018301805467ffffffffffffffff19166001600160401b0383161790557f7d84a6263ae0d98d3329bd7b46bb4e8d6f98cd35a7adb45c274c8b7fd5ebd5e084338b8b8d516001600160401b038111156119f3576119f36128a9565b604051908082528060200260200182016040528015611a2657816020015b6060815260200190600190039081611a115790505b508c88888e604051611a4099989796959493929190613260565b60405180910390a15091979650505050505050565b600754604080516001600160a01b03928316815291831660208301527f08f74ea46ef7894f65eabfb5e6e695de773a000b47c529ab559178069b226401910160405180910390a1600780546001600160a01b0319166001600160a01b0392909216919091179055565b6060610ca88484846040518060600160405280602981526020016133ad6029913961248d565b60008111611b445760405162461bcd60e51b815260206004820152602760248201527f476f7665726e6f7253657474696e67733a20766f74696e6720706572696f6420604482015266746f6f206c6f7760c81b60648201526084016107ed565b60035460408051918252602082018390527f7e3f7f0708a84de9203036abaa450dccc85ad5ff52f78c170f3edb55cf5e8828910160405180910390a1600355565b604051630748d63560e31b81526001600160a01b038381166004830152602482018390526000917f000000000000000000000000000000000000000000000000000000000000000090911690633a46b1a89060440160206040518083038186803b158015611bf257600080fd5b505afa158015611c06573d6000803e3d6000fd5b505050506040513d601f19601f82011682018060405250810190610f63919061305b565b60045460408051918252602082018390527fccb45da8d5717e6c4544694297c4ba5cf151d455c9bb0ed4fc7a38411bc05461910160405180910390a1600455565b60006064600654604051632394e7a360e21b8152600481018590527f00000000000000000000000000000000000000000000000000000000000000006001600160a01b031690638e539e8c9060240160206040518083038186803b158015611cd257600080fd5b505afa158015611ce6573d6000803e3d6000fd5b505050506040513d601f19601f82011682018060405250810190611d0a919061305b565b611d14919061334f565b6107a4919061336e565b60006001600160e01b0319821663bf26d89760e01b14806107a457506301ffc9a760e01b6001600160e01b03198316146107a4565b60075460405163e38335e560e01b81526001600160a01b039091169063e38335e5903490611d8e908890889088906000908990600401613074565b6000604051808303818588803b158015611da757600080fd5b505af1158015611dbb573d6000803e3d6000fd5b50505050505050505050565b6000306001600160a01b037f000000000000000000000000000000000000000000000000000000000000000016148015611e2057507f000000000000000000000000000000000000000000000000000000000000000046145b15611e4a57507f000000000000000000000000000000000000000000000000000000000000000090565b50604080517f00000000000000000000000000000000000000000000000000000000000000006020808301919091527f0000000000000000000000000000000000000000000000000000000000000000828401527f000000000000000000000000000000000000000000000000000000000000000060608301524660808301523060a0808401919091528351808403909101815260c0909201909252805191012090565b6000807f7fffffffffffffffffffffffffffffff5d576e7357a4501ddfe92f46681b20a0831115611f255750600090506003611fd2565b8460ff16601b14158015611f3d57508460ff16601c14155b15611f4e5750600090506004611fd2565b6040805160008082526020820180845289905260ff881692820192909252606081018690526080810185905260019060a0016020604051602081039080840390855afa158015611fa2573d6000803e3d6000fd5b5050604051601f1901519150506001600160a01b038116611fcb57600060019250925050611fd2565b9150600090505b94509492505050565b6000816004811115611fef57611fef612bd4565b1415611ff85750565b600181600481111561200c5761200c612bd4565b141561205a5760405162461bcd60e51b815260206004820152601860248201527f45434453413a20696e76616c6964207369676e6174757265000000000000000060448201526064016107ed565b600281600481111561206e5761206e612bd4565b14156120bc5760405162461bcd60e51b815260206004820152601f60248201527f45434453413a20696e76616c6964207369676e6174757265206c656e6774680060448201526064016107ed565b60038160048111156120d0576120d0612bd4565b14156121295760405162461bcd60e51b815260206004820152602260248201527f45434453413a20696e76616c6964207369676e6174757265202773272076616c604482015261756560f01b60648201526084016107ed565b600481600481111561213d5761213d612bd4565b14156107ff5760405162461bcd60e51b815260206004820152602260248201527f45434453413a20696e76616c6964207369676e6174757265202776272076616c604482015261756560f01b60648201526084016107ed565b60008481526005602090815260408083206001600160a01b0387168452600381019092529091205460ff161561221e5760405162461bcd60e51b815260206004820152602760248201527f476f7665726e6f72566f74696e6753696d706c653a20766f746520616c726561604482015266191e4818d85cdd60ca1b60648201526084016107ed565b6001600160a01b03841660009081526003820160205260408120805460ff1916600117905560ff168360ff16141561226f57818160000160008282546122649190613130565b9091555061101e9050565b60ff83166001141561228f57818160010160008282546122649190613130565b60ff8316600214156122af57818160020160008282546122649190613130565b60405162461bcd60e51b815260206004820152603560248201527f476f7665726e6f72566f74696e6753696d706c653a20696e76616c69642076616044820152746c756520666f7220656e756d20566f74655479706560581b60648201526084016107ed565b6000818152600160205260408120600281015460ff16156123395750600792915050565b6002810154610100900460ff16156123545750600292915050565b600061235f84610b85565b9050806123ae5760405162461bcd60e51b815260206004820152601d60248201527f476f7665726e6f723a20756e6b6e6f776e2070726f706f73616c20696400000060448201526064016107ed565b4381106123bf575060009392505050565b60006123ca85610f75565b90504381106123de57506001949350505050565b6123e7856125b3565b8015612406575060008581526005602052604090208054600190910154115b1561241657506004949350505050565b506003949350505050565b60006001600160401b038211156124895760405162461bcd60e51b815260206004820152602660248201527f53616665436173743a2076616c756520646f65736e27742066697420696e203660448201526534206269747360d01b60648201526084016107ed565b5090565b6060824710156124ee5760405162461bcd60e51b815260206004820152602660248201527f416464726573733a20696e73756666696369656e742062616c616e636520666f6044820152651c8818d85b1b60d21b60648201526084016107ed565b6001600160a01b0385163b6125455760405162461bcd60e51b815260206004820152601d60248201527f416464726573733a2063616c6c20746f206e6f6e2d636f6e747261637400000060448201526064016107ed565b600080866001600160a01b031685876040516125619190613390565b60006040518083038185875af1925050503d806000811461259e576040519150601f19603f3d011682016040523d82523d6000602084013e6125a3565b606091505b5091509150610c508282866125ea565b6000818152600560205260408120600281015460018201546125d59190613130565b6125e161074785610b85565b11159392505050565b606083156125f9575081610f63565b8251156126095782518084602001fd5b8160405162461bcd60e51b81526004016107ed9190612896565b828054828255906000526020600020908101928215612678579160200282015b8281111561267857825182546001600160a01b0319166001600160a01b03909116178255602090920191600190910190612643565b5061248992915061278b565b828054828255906000526020600020908101928215612678579160200282015b828111156126785782518255916020019190600101906126a4565b82805482825590600052602060002090810192821561270c579160200282015b8281111561270c57825180516126fc918491602090910190612718565b50916020019190600101906126df565b506124899291506127a0565b82805461272490612fdf565b90600052602060002090601f0160209004810192826127465760008555612678565b82601f1061275f57805160ff1916838001178555612678565b8280016001018555821561267857918201828111156126785782518255916020019190600101906126a4565b5b80821115612489576000815560010161278c565b808211156124895760006127b482826127bd565b506001016127a0565b5080546127c990612fdf565b6000825580601f106127d9575050565b601f0160209004906000526020600020908101906107ff919061278b565b60006020828403121561280957600080fd5b81356001600160e01b031981168114610f6357600080fd5b60006020828403121561283357600080fd5b5035919050565b60005b8381101561285557818101518382015260200161283d565b83811115612864576000848401525b50505050565b6000815180845261288281602086016020860161283a565b601f01601f19169290920160200192915050565b602081526000610f63602083018461286a565b634e487b7160e01b600052604160045260246000fd5b604051601f8201601f191681016001600160401b03811182821017156128e7576128e76128a9565b604052919050565b60006001600160401b03821115612908576129086128a9565b5060051b60200190565b6001600160a01b03811681146107ff57600080fd5b600082601f83011261293857600080fd5b8135602061294d612948836128ef565b6128bf565b82815260059290921b8401810191818101908684111561296c57600080fd5b8286015b8481101561299057803561298381612912565b8352918301918301612970565b509695505050505050565b600082601f8301126129ac57600080fd5b813560206129bc612948836128ef565b82815260059290921b840181019181810190868411156129db57600080fd5b8286015b8481101561299057803583529183019183016129df565b60006001600160401b03831115612a0f57612a0f6128a9565b612a22601f8401601f19166020016128bf565b9050828152838383011115612a3657600080fd5b828260208301376000602084830101529392505050565b600082601f830112612a5e57600080fd5b81356020612a6e612948836128ef565b82815260059290921b84018101918181019086841115612a8d57600080fd5b8286015b848110156129905780356001600160401b03811115612ab05760008081fd5b8701603f81018913612ac25760008081fd5b612ad38986830135604084016129f6565b845250918301918301612a91565b60008060008060808587031215612af757600080fd5b84356001600160401b0380821115612b0e57600080fd5b612b1a88838901612927565b95506020870135915080821115612b3057600080fd5b612b3c8883890161299b565b94506040870135915080821115612b5257600080fd5b50612b5f87828801612a4d565b949793965093946060013593505050565b803560ff81168114612b8157600080fd5b919050565b600080600080600060a08688031215612b9e57600080fd5b85359450612bae60208701612b70565b9350612bbc60408701612b70565b94979396509394606081013594506080013592915050565b634e487b7160e01b600052602160045260246000fd5b6020810160088310612c0c57634e487b7160e01b600052602160045260246000fd5b91905290565b60008060408385031215612c2557600080fd5b823591506020830135612c3781612912565b809150509250929050565b60008060408385031215612c5557600080fd5b82359150612c6560208401612b70565b90509250929050565b60008083601f840112612c8057600080fd5b5081356001600160401b03811115612c9757600080fd5b602083019150836020828501011115612caf57600080fd5b9250929050565b60008060008060608587031215612ccc57600080fd5b84359350612cdc60208601612b70565b925060408501356001600160401b03811115612cf757600080fd5b612d0387828801612c6e565b95989497509550505050565b60008060008060808587031215612d2557600080fd5b84356001600160401b0380821115612d3c57600080fd5b612d4888838901612927565b95506020870135915080821115612d5e57600080fd5b612d6a8883890161299b565b94506040870135915080821115612d8057600080fd5b612d8c88838901612a4d565b93506060870135915080821115612da257600080fd5b508501601f81018713612db457600080fd5b612dc3878235602084016129f6565b91505092959194509250565b600081518084526020808501945080840160005b83811015612dff57815187529582019590820190600101612de3565b509495945050505050565b602081526000610f636020830184612dcf565b600060208284031215612e2f57600080fd5b8135610f6381612912565b60008060008060608587031215612e5057600080fd5b8435612e5b81612912565b93506020850135925060408501356001600160401b03811115612cf757600080fd5b600081518084526020808501945080840160005b83811015612dff5781516001600160a01b031687529582019590820190600101612e91565b600081518084526020808501808196508360051b8101915082860160005b85811015610e1b578284038952612eec84835161286a565b98850198935090840190600101612ed4565b602081526000825160806020840152612f1a60a0840182612e7d565b90506020840151601f1980858403016040860152612f388383612dcf565b92506040860151915080858403016060860152612f558383612eb6565b9250606086015191508085840301608086015250612f73828261286a565b95945050505050565b60008060408385031215612f8f57600080fd5b8235612f9a81612912565b946020939093013593505050565b60208082526018908201527f476f7665726e6f723a206f6e6c79476f7665726e616e63650000000000000000604082015260600190565b600181811c90821680612ff357607f821691505b6020821081141561301457634e487b7160e01b600052602260045260246000fd5b50919050565b60208082526021908201527f476f7665726e6f723a2070726f706f73616c206e6f74207375636365737366756040820152601b60fa1b606082015260800190565b60006020828403121561306d57600080fd5b5051919050565b60a08152600061308760a0830188612e7d565b82810360208401526130998188612dcf565b905082810360408401526130ad8187612eb6565b60608401959095525050608001529392505050565b60c0815260006130d560c0830189612e7d565b82810360208401526130e78189612dcf565b905082810360408401526130fb8188612eb6565b60608401969096525050608081019290925260a0909101529392505050565b634e487b7160e01b600052601160045260246000fd5b600082198211156131435761314361311a565b500190565b60808152600061315b6080830187612e7d565b828103602084015261316d8187612dcf565b905082810360408401526131818186612eb6565b91505082606083015295945050505050565b84815260ff84166020820152826040820152608060608201526000610d39608083018461286a565b6000602082840312156131cd57600080fd5b81518015158114610f6357600080fd5b6000828210156131ef576131ef61311a565b500390565b60208082526021908201527f476f7665726e6f723a20696e76616c69642070726f706f73616c206c656e67746040820152600d60fb1b606082015260800190565b60006001600160401b038083168185168083038211156132575761325761311a565b01949350505050565b60006101208b8352602060018060a01b038c16818501528160408501526132898285018c612e7d565b9150838203606085015261329d828b612dcf565b915083820360808501528189518084528284019150828160051b850101838c0160005b838110156132ee57601f198784030185526132dc83835161286a565b948601949250908501906001016132c0565b505086810360a0880152613302818c612eb6565b94505050505061331d60c08401876001600160401b03169052565b6001600160401b03851660e084015282810361010084015261333f818561286a565b9c9b505050505050505050505050565b60008160001904831182151516156133695761336961311a565b500290565b60008261338b57634e487b7160e01b600052601260045260246000fd5b500490565b600082516133a281846020870161283a565b919091019291505056fe416464726573733a206c6f772d6c6576656c2063616c6c20776974682076616c7565206661696c6564a2646970667358221220203dedde49430ef208832096a18db7f0a51308eeed6de58c87c8b308e062e31e64736f6c63430008090033",
  "devdoc": {
    "kind": "dev",
    "methods": {
      "COUNTING_MODE()": {
        "details": "See {IGovernor-COUNTING_MODE}."
      },
      "castVote(uint256,uint8)": {
        "details": "See {IGovernor-castVote}."
      },
      "castVoteBySig(uint256,uint8,uint8,bytes32,bytes32)": {
        "details": "See {IGovernor-castVoteBySig}."
      },
      "castVoteWithReason(uint256,uint8,string)": {
        "details": "See {IGovernor-castVoteWithReason}."
      },
      "execute(address[],uint256[],bytes[],bytes32)": {
        "details": "See {IGovernor-execute}."
      },
      "hasVoted(uint256,address)": {
        "details": "See {IGovernor-hasVoted}."
      },
      "hashProposal(address[],uint256[],bytes[],bytes32)": {
        "details": "See {IGovernor-hashProposal}. The proposal id is produced by hashing the RLC encoded `targets` array, the `values` array, the `calldatas` array and the descriptionHash (bytes32 which itself is the keccak256 hash of the description string). This proposal id can be produced from the proposal data which is part of the {ProposalCreated} event. It can even be computed in advance, before the proposal is submitted. Note that the chainId and the governor address are not part of the proposal id computation. Consequently, the same proposal (with same operation and same description) will have the same id if submitted on multiple governors accross multiple networks. This also means that in order to execute the same operation twice (on the same governor) the proposer will have to change the description in order to avoid proposal id conflicts."
      },
      "name()": {
        "details": "See {IGovernor-name}."
      },
      "proposalDeadline(uint256)": {
        "details": "See {IGovernor-proposalDeadline}."
      },
      "proposalEta(uint256)": {
        "details": "Public accessor to check the eta of a queued proposal"
      },
      "proposalSnapshot(uint256)": {
        "details": "See {IGovernor-proposalSnapshot}."
      },
      "proposalVotes(uint256)": {
        "details": "Accessor to the internal vote counts."
      },
      "queue(address[],uint256[],bytes[],bytes32)": {
        "details": "Function to queue a proposal to the timelock."
      },
      "quorumDenominator()": {
        "details": "Returns the quorum denominator. Defaults to 100, but may be overridden."
      },
      "quorumNumerator()": {
        "details": "Returns the current quorum numerator. See {quorumDenominator}."
      },
      "relay(address,uint256,bytes)": {
        "details": "Relays a transaction or function call to an arbitrary target. In cases where the governance executor is some contract other than the governor itself, like when using a timelock, this function can be invoked in a governance proposal to recover tokens or Ether that was sent to the governor contract by mistake. Note that if the executor is simply the governor itself, use of `relay` is redundant."
      },
      "setProposalThreshold(uint256)": {
        "details": "Update the proposal threshold. This operation can only be performed through a governance proposal. Emits a {ProposalThresholdSet} event."
      },
      "setVotingDelay(uint256)": {
        "details": "Update the voting delay. This operation can only be performed through a governance proposal. Emits a {VotingDelaySet} event."
      },
      "setVotingPeriod(uint256)": {
        "details": "Update the voting period. This operation can only be performed through a governance proposal. Emits a {VotingPeriodSet} event."
      },
      "timelock()": {
        "details": "Public accessor to check the address of the timelock"
      },
      "updateQuorumNumerator(uint256)": {
        "details": "Changes the quorum numerator. Emits a {QuorumNumeratorUpdated} event. Requirements: - Must be called through a governance proposal. - New numerator must be smaller or equal to the denominator."
      },
      "updateTimelock(address)": {
        "details": "Public endpoint to update the underlying timelock instance. Restricted to the timelock itself, so updates must be proposed, scheduled, and executed through governance proposals. CAUTION: It is not recommended to change the timelock while there are other queued governance proposals."
      },
      "version()": {
        "details": "See {IGovernor-version}."
      }
    },
    "version": 1
  },
  "userdoc": {
    "kind": "user",
    "methods": {},
    "version": 1
  },
  "storageLayout": {
    "storage": [
      {
        "astId": 576,
        "contract": "contracts/GovernanceOrchestrator.sol:GovernanceOrchestrator",
        "label": "_name",
        "offset": 0,
        "slot": "0",
        "type": "t_string_storage"
      },
      {
        "astId": 581,
        "contract": "contracts/GovernanceOrchestrator.sol:GovernanceOrchestrator",
        "label": "_proposals",
        "offset": 0,
        "slot": "1",
        "type": "t_mapping(t_uint256,t_struct(ProposalCore)574_storage)"
      },
      {
        "astId": 2634,
        "contract": "contracts/GovernanceOrchestrator.sol:GovernanceOrchestrator",
        "label": "_votingDelay",
        "offset": 0,
        "slot": "2",
        "type": "t_uint256"
      },
      {
        "astId": 2636,
        "contract": "contracts/GovernanceOrchestrator.sol:GovernanceOrchestrator",
        "label": "_votingPeriod",
        "offset": 0,
        "slot": "3",
        "type": "t_uint256"
      },
      {
        "astId": 2638,
        "contract": "contracts/GovernanceOrchestrator.sol:GovernanceOrchestrator",
        "label": "_proposalThreshold",
        "offset": 0,
        "slot": "4",
        "type": "t_uint256"
      },
      {
        "astId": 2428,
        "contract": "contracts/GovernanceOrchestrator.sol:GovernanceOrchestrator",
        "label": "_proposalVotes",
        "offset": 0,
        "slot": "5",
        "type": "t_mapping(t_uint256,t_struct(ProposalVote)2423_storage)"
      },
      {
        "astId": 3229,
        "contract": "contracts/GovernanceOrchestrator.sol:GovernanceOrchestrator",
        "label": "_quorumNumerator",
        "offset": 0,
        "slot": "6",
        "type": "t_uint256"
      },
      {
        "astId": 2817,
        "contract": "contracts/GovernanceOrchestrator.sol:GovernanceOrchestrator",
        "label": "_timelock",
        "offset": 0,
        "slot": "7",
        "type": "t_contract(TimelockController)2402"
      },
      {
        "astId": 2821,
        "contract": "contracts/GovernanceOrchestrator.sol:GovernanceOrchestrator",
        "label": "_timelockIds",
        "offset": 0,
        "slot": "8",
        "type": "t_mapping(t_uint256,t_bytes32)"
      },
      {
        "astId": 8493,
        "contract": "contracts/GovernanceOrchestrator.sol:GovernanceOrchestrator",
        "label": "proposalsId",
        "offset": 0,
        "slot": "9",
        "type": "t_array(t_uint256)dyn_storage"
      },
      {
        "astId": 8510,
        "contract": "contracts/GovernanceOrchestrator.sol:GovernanceOrchestrator",
        "label": "_clearProposals",
        "offset": 0,
        "slot": "10",
        "type": "t_mapping(t_uint256,t_struct(ClearProposal)8505_storage)"
      }
    ],
    "types": {
      "t_address": {
        "encoding": "inplace",
        "label": "address",
        "numberOfBytes": "20"
      },
      "t_array(t_address)dyn_storage": {
        "base": "t_address",
        "encoding": "dynamic_array",
        "label": "address[]",
        "numberOfBytes": "32"
      },
      "t_array(t_bytes_storage)dyn_storage": {
        "base": "t_bytes_storage",
        "encoding": "dynamic_array",
        "label": "bytes[]",
        "numberOfBytes": "32"
      },
      "t_array(t_uint256)dyn_storage": {
        "base": "t_uint256",
        "encoding": "dynamic_array",
        "label": "uint256[]",
        "numberOfBytes": "32"
      },
      "t_bool": {
        "encoding": "inplace",
        "label": "bool",
        "numberOfBytes": "1"
      },
      "t_bytes32": {
        "encoding": "inplace",
        "label": "bytes32",
        "numberOfBytes": "32"
      },
      "t_bytes_storage": {
        "encoding": "bytes",
        "label": "bytes",
        "numberOfBytes": "32"
      },
      "t_contract(TimelockController)2402": {
        "encoding": "inplace",
        "label": "contract TimelockController",
        "numberOfBytes": "20"
      },
      "t_mapping(t_address,t_bool)": {
        "encoding": "mapping",
        "key": "t_address",
        "label": "mapping(address => bool)",
        "numberOfBytes": "32",
        "value": "t_bool"
      },
      "t_mapping(t_uint256,t_bytes32)": {
        "encoding": "mapping",
        "key": "t_uint256",
        "label": "mapping(uint256 => bytes32)",
        "numberOfBytes": "32",
        "value": "t_bytes32"
      },
      "t_mapping(t_uint256,t_struct(ClearProposal)8505_storage)": {
        "encoding": "mapping",
        "key": "t_uint256",
        "label": "mapping(uint256 => struct GovernanceOrchestrator.ClearProposal)",
        "numberOfBytes": "32",
        "value": "t_struct(ClearProposal)8505_storage"
      },
      "t_mapping(t_uint256,t_struct(ProposalCore)574_storage)": {
        "encoding": "mapping",
        "key": "t_uint256",
        "label": "mapping(uint256 => struct Governor.ProposalCore)",
        "numberOfBytes": "32",
        "value": "t_struct(ProposalCore)574_storage"
      },
      "t_mapping(t_uint256,t_struct(ProposalVote)2423_storage)": {
        "encoding": "mapping",
        "key": "t_uint256",
        "label": "mapping(uint256 => struct GovernorCountingSimple.ProposalVote)",
        "numberOfBytes": "32",
        "value": "t_struct(ProposalVote)2423_storage"
      },
      "t_string_storage": {
        "encoding": "bytes",
        "label": "string",
        "numberOfBytes": "32"
      },
      "t_struct(BlockNumber)6022_storage": {
        "encoding": "inplace",
        "label": "struct Timers.BlockNumber",
        "members": [
          {
            "astId": 6021,
            "contract": "contracts/GovernanceOrchestrator.sol:GovernanceOrchestrator",
            "label": "_deadline",
            "offset": 0,
            "slot": "0",
            "type": "t_uint64"
          }
        ],
        "numberOfBytes": "32"
      },
      "t_struct(ClearProposal)8505_storage": {
        "encoding": "inplace",
        "label": "struct GovernanceOrchestrator.ClearProposal",
        "members": [
          {
            "astId": 8496,
            "contract": "contracts/GovernanceOrchestrator.sol:GovernanceOrchestrator",
            "label": "targets",
            "offset": 0,
            "slot": "0",
            "type": "t_array(t_address)dyn_storage"
          },
          {
            "astId": 8499,
            "contract": "contracts/GovernanceOrchestrator.sol:GovernanceOrchestrator",
            "label": "values",
            "offset": 0,
            "slot": "1",
            "type": "t_array(t_uint256)dyn_storage"
          },
          {
            "astId": 8502,
            "contract": "contracts/GovernanceOrchestrator.sol:GovernanceOrchestrator",
            "label": "calldatas",
            "offset": 0,
            "slot": "2",
            "type": "t_array(t_bytes_storage)dyn_storage"
          },
          {
            "astId": 8504,
            "contract": "contracts/GovernanceOrchestrator.sol:GovernanceOrchestrator",
            "label": "description",
            "offset": 0,
            "slot": "3",
            "type": "t_string_storage"
          }
        ],
        "numberOfBytes": "128"
      },
      "t_struct(ProposalCore)574_storage": {
        "encoding": "inplace",
        "label": "struct Governor.ProposalCore",
        "members": [
          {
            "astId": 566,
            "contract": "contracts/GovernanceOrchestrator.sol:GovernanceOrchestrator",
            "label": "voteStart",
            "offset": 0,
            "slot": "0",
            "type": "t_struct(BlockNumber)6022_storage"
          },
          {
            "astId": 569,
            "contract": "contracts/GovernanceOrchestrator.sol:GovernanceOrchestrator",
            "label": "voteEnd",
            "offset": 0,
            "slot": "1",
            "type": "t_struct(BlockNumber)6022_storage"
          },
          {
            "astId": 571,
            "contract": "contracts/GovernanceOrchestrator.sol:GovernanceOrchestrator",
            "label": "executed",
            "offset": 0,
            "slot": "2",
            "type": "t_bool"
          },
          {
            "astId": 573,
            "contract": "contracts/GovernanceOrchestrator.sol:GovernanceOrchestrator",
            "label": "canceled",
            "offset": 1,
            "slot": "2",
            "type": "t_bool"
          }
        ],
        "numberOfBytes": "96"
      },
      "t_struct(ProposalVote)2423_storage": {
        "encoding": "inplace",
        "label": "struct GovernorCountingSimple.ProposalVote",
        "members": [
          {
            "astId": 2414,
            "contract": "contracts/GovernanceOrchestrator.sol:GovernanceOrchestrator",
            "label": "againstVotes",
            "offset": 0,
            "slot": "0",
            "type": "t_uint256"
          },
          {
            "astId": 2416,
            "contract": "contracts/GovernanceOrchestrator.sol:GovernanceOrchestrator",
            "label": "forVotes",
            "offset": 0,
            "slot": "1",
            "type": "t_uint256"
          },
          {
            "astId": 2418,
            "contract": "contracts/GovernanceOrchestrator.sol:GovernanceOrchestrator",
            "label": "abstainVotes",
            "offset": 0,
            "slot": "2",
            "type": "t_uint256"
          },
          {
            "astId": 2422,
            "contract": "contracts/GovernanceOrchestrator.sol:GovernanceOrchestrator",
            "label": "hasVoted",
            "offset": 0,
            "slot": "3",
            "type": "t_mapping(t_address,t_bool)"
          }
        ],
        "numberOfBytes": "128"
      },
      "t_uint256": {
        "encoding": "inplace",
        "label": "uint256",
        "numberOfBytes": "32"
      },
      "t_uint64": {
        "encoding": "inplace",
        "label": "uint64",
        "numberOfBytes": "8"
      }
    }
  }
}