{
  "address": "0xE54548362eFC9268866D9D7Cb0D3dE1eF030858d",
  "abi": [
    {
      "inputs": [
        {
          "internalType": "address",
          "name": "",
          "type": "address"
        }
      ],
      "name": "KYCCompletedRegistry",
      "outputs": [
        {
          "internalType": "bool",
          "name": "",
          "type": "bool"
        }
      ],
      "stateMutability": "view",
      "type": "function"
    },
    {
      "inputs": [
        {
          "internalType": "address",
          "name": "_buyer",
          "type": "address"
        }
      ],
      "name": "requireKYCCompletion",
      "outputs": [],
      "stateMutability": "view",
      "type": "function"
    },
    {
      "inputs": [
        {
          "internalType": "address",
          "name": "_userAddress",
          "type": "address"
        }
      ],
      "name": "seKYCCompletedFor",
      "outputs": [],
      "stateMutability": "nonpayable",
      "type": "function"
    },
    {
      "inputs": [
        {
          "internalType": "address",
          "name": "_userAddress",
          "type": "address"
        }
      ],
      "name": "seKYCRevokedFor",
      "outputs": [],
      "stateMutability": "nonpayable",
      "type": "function"
    }
  ],
  "transactionHash": "0xd5a47ed8b8bf51b39517e7f38f4afb2fd51db7a8db16b40f8697c84ffda71bc5",
  "args": [],
  "numDeployments": 1,
  "solcInputHash": "7ebf85cac6e39e3db4576b4944c63515",
  "bytecode": "0x608060405234801561001057600080fd5b506101ea806100206000396000f3fe608060405234801561001057600080fd5b506004361061004c5760003560e01c806311e1464b1461005157806337d6c8821461006657806387c1172f1461009d578063b33d5a1f146100cc575b600080fd5b61006461005f366004610184565b6100fe565b005b610089610074366004610184565b60006020819052908152604090205460ff1681565b604051901515815260200160405180910390f35b6100646100ab366004610184565b6001600160a01b03166000908152602081905260409020805460ff19169055565b6100646100da366004610184565b6001600160a01b03166000908152602081905260409020805460ff19166001179055565b6001600160a01b03811660009081526020819052604090205460ff166101815760405162461bcd60e51b815260206004820152602e60248201527f596f75206d75737420636f6d706c657465204b5943206265666f72652070757260448201526d63686173696e6720746f6b656e7360901b606482015260840160405180910390fd5b50565b60006020828403121561019657600080fd5b81356001600160a01b03811681146101ad57600080fd5b939250505056fea264697066735822122094d3a6c1c4c77b03e6cade4f47635fcb3346e78ee4c03ffeb213030f45eb54f464736f6c63430008090033",
  "devdoc": {
    "kind": "dev",
    "methods": {},
    "version": 1
  },
  "userdoc": {
    "kind": "user",
    "methods": {},
    "version": 1
  },
  "storageLayout": {
    "storage": [
      {
        "astId": 8831,
        "contract": "contracts/KYCValidation.sol:KYCValidation",
        "label": "KYCCompletedRegistry",
        "offset": 0,
        "slot": "0",
        "type": "t_mapping(t_address,t_bool)"
      }
    ],
    "types": {
      "t_address": {
        "encoding": "inplace",
        "label": "address",
        "numberOfBytes": "20"
      },
      "t_bool": {
        "encoding": "inplace",
        "label": "bool",
        "numberOfBytes": "1"
      },
      "t_mapping(t_address,t_bool)": {
        "encoding": "mapping",
        "key": "t_address",
        "label": "mapping(address => bool)",
        "numberOfBytes": "32",
        "value": "t_bool"
      }
    }
  }
}