{
  "address": "0x82c062a9de19d17Fb6c3Ac28e441D9cb296De722",
  "abi": [
    {
      "inputs": [
        {
          "internalType": "contract ERC20",
          "name": "_erc20Token",
          "type": "address"
        },
        {
          "internalType": "uint256",
          "name": "_stakeInterestRateWithFourDecimalsWithFoursDecimals",
          "type": "uint256"
        },
        {
          "internalType": "uint256",
          "name": "_stakeLockTimeDays",
          "type": "uint256"
        }
      ],
      "stateMutability": "nonpayable",
      "type": "constructor"
    },
    {
      "anonymous": false,
      "inputs": [
        {
          "indexed": true,
          "internalType": "address",
          "name": "stakerAddress",
          "type": "address"
        },
        {
          "indexed": true,
          "internalType": "uint256",
          "name": "stakedAmount",
          "type": "uint256"
        },
        {
          "indexed": true,
          "internalType": "uint256",
          "name": "timestamp",
          "type": "uint256"
        }
      ],
      "name": "NewStake",
      "type": "event"
    },
    {
      "anonymous": false,
      "inputs": [
        {
          "indexed": true,
          "internalType": "address",
          "name": "previousOwner",
          "type": "address"
        },
        {
          "indexed": true,
          "internalType": "address",
          "name": "newOwner",
          "type": "address"
        }
      ],
      "name": "OwnershipTransferred",
      "type": "event"
    },
    {
      "anonymous": false,
      "inputs": [
        {
          "indexed": true,
          "internalType": "address",
          "name": "stakerAddress",
          "type": "address"
        },
        {
          "indexed": true,
          "internalType": "uint256",
          "name": "stakedAmount",
          "type": "uint256"
        },
        {
          "indexed": true,
          "internalType": "uint256",
          "name": "rewardAmount",
          "type": "uint256"
        }
      ],
      "name": "UnStake",
      "type": "event"
    },
    {
      "inputs": [],
      "name": "Erc20Token",
      "outputs": [
        {
          "internalType": "contract ERC20",
          "name": "",
          "type": "address"
        }
      ],
      "stateMutability": "view",
      "type": "function"
    },
    {
      "inputs": [],
      "name": "getSenderCurrentStakeDays",
      "outputs": [
        {
          "internalType": "uint256",
          "name": "",
          "type": "uint256"
        }
      ],
      "stateMutability": "view",
      "type": "function"
    },
    {
      "inputs": [
        {
          "internalType": "address",
          "name": "",
          "type": "address"
        }
      ],
      "name": "hasEverStakedTracker",
      "outputs": [
        {
          "internalType": "bool",
          "name": "",
          "type": "bool"
        }
      ],
      "stateMutability": "view",
      "type": "function"
    },
    {
      "inputs": [
        {
          "internalType": "address",
          "name": "",
          "type": "address"
        }
      ],
      "name": "isCurrentlyStakingTracker",
      "outputs": [
        {
          "internalType": "bool",
          "name": "",
          "type": "bool"
        }
      ],
      "stateMutability": "view",
      "type": "function"
    },
    {
      "inputs": [
        {
          "internalType": "address",
          "name": "",
          "type": "address"
        }
      ],
      "name": "lastStakesRegistry",
      "outputs": [
        {
          "internalType": "uint256",
          "name": "amount",
          "type": "uint256"
        },
        {
          "internalType": "uint256",
          "name": "timestamp",
          "type": "uint256"
        }
      ],
      "stateMutability": "view",
      "type": "function"
    },
    {
      "inputs": [],
      "name": "owner",
      "outputs": [
        {
          "internalType": "address",
          "name": "",
          "type": "address"
        }
      ],
      "stateMutability": "view",
      "type": "function"
    },
    {
      "inputs": [],
      "name": "renounceOwnership",
      "outputs": [],
      "stateMutability": "nonpayable",
      "type": "function"
    },
    {
      "inputs": [],
      "name": "stakeInterestRateWithFourDecimals",
      "outputs": [
        {
          "internalType": "uint256",
          "name": "",
          "type": "uint256"
        }
      ],
      "stateMutability": "view",
      "type": "function"
    },
    {
      "inputs": [],
      "name": "stakeLockTimeDay",
      "outputs": [
        {
          "internalType": "uint256",
          "name": "",
          "type": "uint256"
        }
      ],
      "stateMutability": "view",
      "type": "function"
    },
    {
      "inputs": [
        {
          "internalType": "uint256",
          "name": "_amountToStakeInWei",
          "type": "uint256"
        }
      ],
      "name": "stakeTokens",
      "outputs": [],
      "stateMutability": "nonpayable",
      "type": "function"
    },
    {
      "inputs": [
        {
          "internalType": "uint256",
          "name": "",
          "type": "uint256"
        }
      ],
      "name": "stakersAddress",
      "outputs": [
        {
          "internalType": "address",
          "name": "",
          "type": "address"
        }
      ],
      "stateMutability": "view",
      "type": "function"
    },
    {
      "inputs": [
        {
          "internalType": "address",
          "name": "newOwner",
          "type": "address"
        }
      ],
      "name": "transferOwnership",
      "outputs": [],
      "stateMutability": "nonpayable",
      "type": "function"
    },
    {
      "inputs": [],
      "name": "unStakeTokens",
      "outputs": [],
      "stateMutability": "nonpayable",
      "type": "function"
    },
    {
      "inputs": [
        {
          "internalType": "uint256",
          "name": "_newInterestRateWithFourDecimals",
          "type": "uint256"
        }
      ],
      "name": "updateInterestRate",
      "outputs": [],
      "stateMutability": "nonpayable",
      "type": "function"
    },
    {
      "inputs": [
        {
          "internalType": "uint256",
          "name": "_newLockTime",
          "type": "uint256"
        }
      ],
      "name": "updateStakeLockTime",
      "outputs": [],
      "stateMutability": "nonpayable",
      "type": "function"
    }
  ],
  "transactionHash": "0xba437eafff21f0d826142fe382b63069c1732def58982302fc09550f7c84c950",
  "args": [
    "0xA7F1Cc209DA766496B61875a8862F65ca120e91e",
    60,
    5
  ],
  "numDeployments": 1,
  "solcInputHash": "ffaed285f28404f0c6eb665abdd4cb89",
  "bytecode": "0x608060405234801561001057600080fd5b50604051610aaf380380610aaf83398101604081905261002f916100bb565b82828261003b3361006b565b600180546001600160a01b0319166001600160a01b039490941693909317909255600655600755506100fe915050565b600080546001600160a01b038381166001600160a01b0319831681178455604051919092169283917f8be0079c531659141344cd1fd0a4f28419497f9722a3daafe3b4186f6b6457e09190a35050565b6000806000606084860312156100d057600080fd5b83516001600160a01b03811681146100e757600080fd5b602085015160409095015190969495509392505050565b6109a28061010d6000396000f3fe608060405234801561001057600080fd5b50600436106100f55760003560e01c80637547c7a311610097578063b066d06211610066578063b066d062146101f4578063c3dd76e214610227578063e40c358d1461024a578063f2fde38b1461025357600080fd5b80637547c7a31461018c5780637896bf1d1461019f5780638da5cb5b146101a757806395a1eba1146101b857600080fd5b80632d207929116100d35780632d20792914610156578063715018a61461015e578063751408c514610166578063752a50a61461017957600080fd5b806308262b42146100fa5780632c343a781461010f5780632c5b0df61461012b575b600080fd5b61010d610108366004610846565b610266565b005b61011860065481565b6040519081526020015b60405180910390f35b60015461013e906001600160a01b031681565b6040516001600160a01b039091168152602001610122565b61011861029e565b61010d6102d5565b61013e610174366004610846565b61030b565b61010d610187366004610846565b610335565b61010d61019a366004610846565b610364565b61010d610447565b6000546001600160a01b031661013e565b6101df6101c636600461085f565b6003602052600090815260409020805460019091015482565b60408051928352602083019190915201610122565b61021761020236600461085f565b60056020526000908152604090205460ff1681565b6040519015158152602001610122565b61021761023536600461085f565b60046020526000908152604090205460ff1681565b61011860075481565b61010d61026136600461085f565b610544565b6000546001600160a01b031633146102995760405162461bcd60e51b81526004016102909061088f565b60405180910390fd5b600755565b33600090815260036020908152604080832081518083019092528054825260010154918101919091526102d0906105dc565b905090565b6000546001600160a01b031633146102ff5760405162461bcd60e51b81526004016102909061088f565b6103096000610602565b565b6002818154811061031b57600080fd5b6000918252602090912001546001600160a01b0316905081565b6000546001600160a01b0316331461035f5760405162461bcd60e51b81526004016102909061088f565b600655565b600081116103b45760405162461bcd60e51b815260206004820152601760248201527f7374616b696e6720616d6f756e742072657175697265640000000000000000006044820152606401610290565b3360009081526005602052604090205460ff16156104065760405162461bcd60e51b815260206004820152600f60248201526e616c7265616479207374616b696e6760881b6044820152606401610290565b61040f81610652565b3360009081526005602090815260408083208054600160ff199182168117909255600490935292208054909116909117905550565b50565b3360009081526005602052604090205460ff166104945760405162461bcd60e51b815260206004820152600b60248201526a6e6f74207374616b696e6760a81b6044820152606401610290565b3360009081526003602090815260408083208151808301909252805482526001015491810191909152906104c661029e565b905060075481101561051a5760405162461bcd60e51b815260206004820152601960248201527f6c6f636b2074696d6520686173206e6f742065787069726564000000000000006044820152606401610290565b6105248282610740565b610540336000908152600560205260409020805460ff19169055565b5050565b6000546001600160a01b0316331461056e5760405162461bcd60e51b81526004016102909061088f565b6001600160a01b0381166105d35760405162461bcd60e51b815260206004820152602660248201527f4f776e61626c653a206e6577206f776e657220697320746865207a65726f206160448201526564647265737360d01b6064820152608401610290565b61044481610602565b6000620151808260200151426105f291906108da565b6105fc91906108f1565b92915050565b600080546001600160a01b038381166001600160a01b0319831681178455604051919092169283917f8be0079c531659141344cd1fd0a4f28419497f9722a3daafe3b4186f6b6457e09190a35050565b6001546040516323b872dd60e01b8152336004820152306024820152604481018390526001600160a01b03909116906323b872dd90606401602060405180830381600087803b1580156106a457600080fd5b505af11580156106b8573d6000803e3d6000fd5b505050506040513d601f19601f820116820180604052508101906106dc9190610913565b506040805180820182528281524260208083018281523360008181526003909352858320945185559051600190940193909355925190928392859290917f55595f34fd936311e65eca0a752ee70068b8992fdf64918aff1b6345689c84e491a45050565b6000620186a08260065485600001516107599190610935565b6107639190610935565b61076d91906108f1565b60015484519192506001600160a01b03169063a9059cbb903390610792908590610954565b6040516001600160e01b031960e085901b1681526001600160a01b0390921660048301526024820152604401602060405180830381600087803b1580156107d857600080fd5b505af11580156107ec573d6000803e3d6000fd5b505050506040513d601f19601f820116820180604052508101906108109190610913565b50825160405182919033907f54a9763035584fc4fcad1bc4e0e7a83f93e016f50ae32bd527530a77257393ee90600090a4505050565b60006020828403121561085857600080fd5b5035919050565b60006020828403121561087157600080fd5b81356001600160a01b038116811461088857600080fd5b9392505050565b6020808252818101527f4f776e61626c653a2063616c6c6572206973206e6f7420746865206f776e6572604082015260600190565b634e487b7160e01b600052601160045260246000fd5b6000828210156108ec576108ec6108c4565b500390565b60008261090e57634e487b7160e01b600052601260045260246000fd5b500490565b60006020828403121561092557600080fd5b8151801515811461088857600080fd5b600081600019048311821515161561094f5761094f6108c4565b500290565b60008219821115610967576109676108c4565b50019056fea2646970667358221220d1fe7440b8fb43627c680f1fbe4dbabd8f59455b527cb278fed7341f0ee6d69a64736f6c63430008090033",
  "devdoc": {
    "kind": "dev",
    "methods": {
      "owner()": {
        "details": "Returns the address of the current owner."
      },
      "renounceOwnership()": {
        "details": "Leaves the contract without owner. It will not be possible to call `onlyOwner` functions anymore. Can only be called by the current owner. NOTE: Renouncing ownership will leave the contract without an owner, thereby removing any functionality that is only available to the owner."
      },
      "transferOwnership(address)": {
        "details": "Transfers ownership of the contract to a new account (`newOwner`). Can only be called by the current owner."
      }
    },
    "version": 1
  },
  "userdoc": {
    "kind": "user",
    "methods": {},
    "version": 1
  },
  "storageLayout": {
    "storage": [
      {
        "astId": 435,
        "contract": "contracts/AstroStake.sol:AstroStake",
        "label": "_owner",
        "offset": 0,
        "slot": "0",
        "type": "t_address"
      },
      {
        "astId": 9069,
        "contract": "contracts/AstroStake.sol:AstroStake",
        "label": "Erc20Token",
        "offset": 0,
        "slot": "1",
        "type": "t_contract(ERC20)4075"
      },
      {
        "astId": 9077,
        "contract": "contracts/AstroStake.sol:AstroStake",
        "label": "stakersAddress",
        "offset": 0,
        "slot": "2",
        "type": "t_array(t_address)dyn_storage"
      },
      {
        "astId": 9082,
        "contract": "contracts/AstroStake.sol:AstroStake",
        "label": "lastStakesRegistry",
        "offset": 0,
        "slot": "3",
        "type": "t_mapping(t_address,t_struct(Stake)9074_storage)"
      },
      {
        "astId": 9086,
        "contract": "contracts/AstroStake.sol:AstroStake",
        "label": "hasEverStakedTracker",
        "offset": 0,
        "slot": "4",
        "type": "t_mapping(t_address,t_bool)"
      },
      {
        "astId": 9090,
        "contract": "contracts/AstroStake.sol:AstroStake",
        "label": "isCurrentlyStakingTracker",
        "offset": 0,
        "slot": "5",
        "type": "t_mapping(t_address,t_bool)"
      },
      {
        "astId": 9092,
        "contract": "contracts/AstroStake.sol:AstroStake",
        "label": "stakeInterestRateWithFourDecimals",
        "offset": 0,
        "slot": "6",
        "type": "t_uint256"
      },
      {
        "astId": 9094,
        "contract": "contracts/AstroStake.sol:AstroStake",
        "label": "stakeLockTimeDay",
        "offset": 0,
        "slot": "7",
        "type": "t_uint256"
      }
    ],
    "types": {
      "t_address": {
        "encoding": "inplace",
        "label": "address",
        "numberOfBytes": "20"
      },
      "t_array(t_address)dyn_storage": {
        "base": "t_address",
        "encoding": "dynamic_array",
        "label": "address[]",
        "numberOfBytes": "32"
      },
      "t_bool": {
        "encoding": "inplace",
        "label": "bool",
        "numberOfBytes": "1"
      },
      "t_contract(ERC20)4075": {
        "encoding": "inplace",
        "label": "contract ERC20",
        "numberOfBytes": "20"
      },
      "t_mapping(t_address,t_bool)": {
        "encoding": "mapping",
        "key": "t_address",
        "label": "mapping(address => bool)",
        "numberOfBytes": "32",
        "value": "t_bool"
      },
      "t_mapping(t_address,t_struct(Stake)9074_storage)": {
        "encoding": "mapping",
        "key": "t_address",
        "label": "mapping(address => struct SimpleStake.Stake)",
        "numberOfBytes": "32",
        "value": "t_struct(Stake)9074_storage"
      },
      "t_struct(Stake)9074_storage": {
        "encoding": "inplace",
        "label": "struct SimpleStake.Stake",
        "members": [
          {
            "astId": 9071,
            "contract": "contracts/AstroStake.sol:AstroStake",
            "label": "amount",
            "offset": 0,
            "slot": "0",
            "type": "t_uint256"
          },
          {
            "astId": 9073,
            "contract": "contracts/AstroStake.sol:AstroStake",
            "label": "timestamp",
            "offset": 0,
            "slot": "1",
            "type": "t_uint256"
          }
        ],
        "numberOfBytes": "64"
      },
      "t_uint256": {
        "encoding": "inplace",
        "label": "uint256",
        "numberOfBytes": "32"
      }
    }
  }
}