{
  "_format": "hh-sol-artifact-1",
  "contractName": "AstroStake",
  "sourceName": "contracts/AstroStake.sol",
  "abi": [
    {
      "inputs": [
        {
          "internalType": "contract ERC20",
          "name": "_erc20Token",
          "type": "address"
        },
        {
          "internalType": "uint256",
          "name": "_stakeInterestRateWithFourDecimalsWithFoursDecimals",
          "type": "uint256"
        },
        {
          "internalType": "uint256",
          "name": "_stakeLockTimeDays",
          "type": "uint256"
        }
      ],
      "stateMutability": "nonpayable",
      "type": "constructor"
    },
    {
      "anonymous": false,
      "inputs": [
        {
          "indexed": true,
          "internalType": "address",
          "name": "stakerAddress",
          "type": "address"
        },
        {
          "indexed": true,
          "internalType": "uint256",
          "name": "stakedAmount",
          "type": "uint256"
        }
      ],
      "name": "NewStake",
      "type": "event"
    },
    {
      "anonymous": false,
      "inputs": [
        {
          "indexed": true,
          "internalType": "address",
          "name": "previousOwner",
          "type": "address"
        },
        {
          "indexed": true,
          "internalType": "address",
          "name": "newOwner",
          "type": "address"
        }
      ],
      "name": "OwnershipTransferred",
      "type": "event"
    },
    {
      "anonymous": false,
      "inputs": [
        {
          "indexed": true,
          "internalType": "address",
          "name": "stakerAddress",
          "type": "address"
        },
        {
          "indexed": true,
          "internalType": "uint256",
          "name": "stakedAmount",
          "type": "uint256"
        },
        {
          "indexed": true,
          "internalType": "uint256",
          "name": "rewardAmount",
          "type": "uint256"
        }
      ],
      "name": "UnStake",
      "type": "event"
    },
    {
      "inputs": [],
      "name": "Erc20Token",
      "outputs": [
        {
          "internalType": "contract ERC20",
          "name": "",
          "type": "address"
        }
      ],
      "stateMutability": "view",
      "type": "function"
    },
    {
      "inputs": [],
      "name": "getSenderCurrentStakeDays",
      "outputs": [
        {
          "internalType": "uint256",
          "name": "",
          "type": "uint256"
        }
      ],
      "stateMutability": "view",
      "type": "function"
    },
    {
      "inputs": [
        {
          "internalType": "address",
          "name": "",
          "type": "address"
        }
      ],
      "name": "hasEverStakedTracker",
      "outputs": [
        {
          "internalType": "bool",
          "name": "",
          "type": "bool"
        }
      ],
      "stateMutability": "view",
      "type": "function"
    },
    {
      "inputs": [
        {
          "internalType": "address",
          "name": "",
          "type": "address"
        }
      ],
      "name": "isCurrentlyStakingTracker",
      "outputs": [
        {
          "internalType": "bool",
          "name": "",
          "type": "bool"
        }
      ],
      "stateMutability": "view",
      "type": "function"
    },
    {
      "inputs": [
        {
          "internalType": "address",
          "name": "",
          "type": "address"
        }
      ],
      "name": "lastStakesRegistry",
      "outputs": [
        {
          "internalType": "uint256",
          "name": "amount",
          "type": "uint256"
        },
        {
          "internalType": "uint256",
          "name": "timestamp",
          "type": "uint256"
        }
      ],
      "stateMutability": "view",
      "type": "function"
    },
    {
      "inputs": [],
      "name": "owner",
      "outputs": [
        {
          "internalType": "address",
          "name": "",
          "type": "address"
        }
      ],
      "stateMutability": "view",
      "type": "function"
    },
    {
      "inputs": [],
      "name": "renounceOwnership",
      "outputs": [],
      "stateMutability": "nonpayable",
      "type": "function"
    },
    {
      "inputs": [],
      "name": "stakeInterestRateWithFourDecimals",
      "outputs": [
        {
          "internalType": "uint256",
          "name": "",
          "type": "uint256"
        }
      ],
      "stateMutability": "view",
      "type": "function"
    },
    {
      "inputs": [],
      "name": "stakeLockTimeDay",
      "outputs": [
        {
          "internalType": "uint256",
          "name": "",
          "type": "uint256"
        }
      ],
      "stateMutability": "view",
      "type": "function"
    },
    {
      "inputs": [
        {
          "internalType": "uint256",
          "name": "_amountToStakeInWei",
          "type": "uint256"
        }
      ],
      "name": "stakeTokens",
      "outputs": [],
      "stateMutability": "nonpayable",
      "type": "function"
    },
    {
      "inputs": [
        {
          "internalType": "uint256",
          "name": "",
          "type": "uint256"
        }
      ],
      "name": "stakersAddress",
      "outputs": [
        {
          "internalType": "address",
          "name": "",
          "type": "address"
        }
      ],
      "stateMutability": "view",
      "type": "function"
    },
    {
      "inputs": [
        {
          "internalType": "address",
          "name": "newOwner",
          "type": "address"
        }
      ],
      "name": "transferOwnership",
      "outputs": [],
      "stateMutability": "nonpayable",
      "type": "function"
    },
    {
      "inputs": [],
      "name": "unStakeTokens",
      "outputs": [],
      "stateMutability": "nonpayable",
      "type": "function"
    },
    {
      "inputs": [
        {
          "internalType": "uint256",
          "name": "_newInterestRateWithFourDecimals",
          "type": "uint256"
        }
      ],
      "name": "updateInterestRate",
      "outputs": [],
      "stateMutability": "nonpayable",
      "type": "function"
    },
    {
      "inputs": [
        {
          "internalType": "uint256",
          "name": "_newLockTime",
          "type": "uint256"
        }
      ],
      "name": "updateStakeLockTime",
      "outputs": [],
      "stateMutability": "nonpayable",
      "type": "function"
    }
  ],
  "bytecode": "0x608060405234801561001057600080fd5b50604051610a57380380610a5783398101604081905261002f916100bb565b82828261003b3361006b565b600180546001600160a01b0319166001600160a01b039490941693909317909255600655600755506100fe915050565b600080546001600160a01b038381166001600160a01b0319831681178455604051919092169283917f8be0079c531659141344cd1fd0a4f28419497f9722a3daafe3b4186f6b6457e09190a35050565b6000806000606084860312156100d057600080fd5b83516001600160a01b03811681146100e757600080fd5b602085015160409095015190969495509392505050565b61094a8061010d6000396000f3fe608060405234801561001057600080fd5b50600436106100f55760003560e01c80637547c7a311610097578063b066d06211610066578063b066d062146101f4578063c3dd76e214610227578063e40c358d1461024a578063f2fde38b1461025357600080fd5b80637547c7a31461018c5780637896bf1d1461019f5780638da5cb5b146101a757806395a1eba1146101b857600080fd5b80632d207929116100d35780632d20792914610156578063715018a61461015e578063751408c514610166578063752a50a61461017957600080fd5b806308262b42146100fa5780632c343a781461010f5780632c5b0df61461012b575b600080fd5b61010d6101083660046107ee565b610266565b005b61011860065481565b6040519081526020015b60405180910390f35b60015461013e906001600160a01b031681565b6040516001600160a01b039091168152602001610122565b61011861029e565b61010d6102d5565b61013e6101743660046107ee565b61030b565b61010d6101873660046107ee565b610335565b61010d61019a3660046107ee565b610364565b61010d6103f5565b6000546001600160a01b031661013e565b6101df6101c6366004610807565b6003602052600090815260409020805460019091015482565b60408051928352602083019190915201610122565b610217610202366004610807565b60056020526000908152604090205460ff1681565b6040519015158152602001610122565b610217610235366004610807565b60046020526000908152604090205460ff1681565b61011860075481565b61010d610261366004610807565b6104f2565b6000546001600160a01b031633146102995760405162461bcd60e51b815260040161029090610837565b60405180910390fd5b600755565b33600090815260036020908152604080832081518083019092528054825260010154918101919091526102d09061058a565b905090565b6000546001600160a01b031633146102ff5760405162461bcd60e51b815260040161029090610837565b61030960006105b0565b565b6002818154811061031b57600080fd5b6000918252602090912001546001600160a01b0316905081565b6000546001600160a01b0316331461035f5760405162461bcd60e51b815260040161029090610837565b600655565b600081116103b45760405162461bcd60e51b815260206004820152601760248201527f7374616b696e6720616d6f756e742072657175697265640000000000000000006044820152606401610290565b6103bd81610600565b3360009081526005602090815260408083208054600160ff199182168117909255600490935292208054909116909117905550565b50565b3360009081526005602052604090205460ff166104425760405162461bcd60e51b815260206004820152600b60248201526a6e6f74207374616b696e6760a81b6044820152606401610290565b33600090815260036020908152604080832081518083019092528054825260010154918101919091529061047461029e565b90506007548110156104c85760405162461bcd60e51b815260206004820152601960248201527f6c6f636b2074696d6520686173206e6f742065787069726564000000000000006044820152606401610290565b6104d282826106e8565b6104ee336000908152600560205260409020805460ff19169055565b5050565b6000546001600160a01b0316331461051c5760405162461bcd60e51b815260040161029090610837565b6001600160a01b0381166105815760405162461bcd60e51b815260206004820152602660248201527f4f776e61626c653a206e6577206f776e657220697320746865207a65726f206160448201526564647265737360d01b6064820152608401610290565b6103f2816105b0565b6000620151808260200151426105a09190610882565b6105aa9190610899565b92915050565b600080546001600160a01b038381166001600160a01b0319831681178455604051919092169283917f8be0079c531659141344cd1fd0a4f28419497f9722a3daafe3b4186f6b6457e09190a35050565b6001546040516323b872dd60e01b8152336004820152306024820152604481018390526001600160a01b03909116906323b872dd90606401602060405180830381600087803b15801561065257600080fd5b505af1158015610666573d6000803e3d6000fd5b505050506040513d601f19601f8201168201806040525081019061068a91906108bb565b50604080518082018252828152426020808301918252336000818152600390925284822093518455915160019093019290925591518392917f42e99fbad9601d25ee3bb515eeee966f97c3c383adadbe5720f651df8c18989d91a350565b6000620186a082600654856000015161070191906108dd565b61070b91906108dd565b6107159190610899565b60015484519192506001600160a01b03169063a9059cbb90339061073a9085906108fc565b6040516001600160e01b031960e085901b1681526001600160a01b0390921660048301526024820152604401602060405180830381600087803b15801561078057600080fd5b505af1158015610794573d6000803e3d6000fd5b505050506040513d601f19601f820116820180604052508101906107b891906108bb565b50825160405182919033907f54a9763035584fc4fcad1bc4e0e7a83f93e016f50ae32bd527530a77257393ee90600090a4505050565b60006020828403121561080057600080fd5b5035919050565b60006020828403121561081957600080fd5b81356001600160a01b038116811461083057600080fd5b9392505050565b6020808252818101527f4f776e61626c653a2063616c6c6572206973206e6f7420746865206f776e6572604082015260600190565b634e487b7160e01b600052601160045260246000fd5b6000828210156108945761089461086c565b500390565b6000826108b657634e487b7160e01b600052601260045260246000fd5b500490565b6000602082840312156108cd57600080fd5b8151801515811461083057600080fd5b60008160001904831182151516156108f7576108f761086c565b500290565b6000821982111561090f5761090f61086c565b50019056fea26469706673582212206f3fc896be8412f7da76c9ed3f7db1bfa31bc92637499f92d38cc1d85a5c16f164736f6c63430008090033",
  "linkReferences": {},
  "deployedLinkReferences": {}
}