{
  "_format": "hh-sol-artifact-1",
  "contractName": "SatiTokenSale",
  "sourceName": "contracts/SatiTokenSale.sol",
  "abi": [
    {
      "inputs": [
        {
          "internalType": "uint256",
          "name": "_fixedExchangeRate",
          "type": "uint256"
        },
        {
          "internalType": "address payable",
          "name": "_wallet",
          "type": "address"
        },
        {
          "internalType": "contract IERC20",
          "name": "_token",
          "type": "address"
        },
        {
          "internalType": "contract KYCValidation",
          "name": "_kycValidation",
          "type": "address"
        }
      ],
      "stateMutability": "nonpayable",
      "type": "constructor"
    },
    {
      "anonymous": false,
      "inputs": [
        {
          "indexed": true,
          "internalType": "address",
          "name": "purchaser",
          "type": "address"
        },
        {
          "indexed": true,
          "internalType": "address",
          "name": "beneficiary",
          "type": "address"
        },
        {
          "indexed": false,
          "internalType": "uint256",
          "name": "value",
          "type": "uint256"
        },
        {
          "indexed": false,
          "internalType": "uint256",
          "name": "amount",
          "type": "uint256"
        }
      ],
      "name": "TokensPurchased",
      "type": "event"
    },
    {
      "inputs": [],
      "name": "KYCValidationEnabled",
      "outputs": [
        {
          "internalType": "bool",
          "name": "",
          "type": "bool"
        }
      ],
      "stateMutability": "view",
      "type": "function"
    },
    {
      "inputs": [
        {
          "internalType": "address",
          "name": "beneficiary",
          "type": "address"
        }
      ],
      "name": "buyTokens",
      "outputs": [],
      "stateMutability": "payable",
      "type": "function"
    },
    {
      "inputs": [],
      "name": "rate",
      "outputs": [
        {
          "internalType": "uint256",
          "name": "",
          "type": "uint256"
        }
      ],
      "stateMutability": "view",
      "type": "function"
    },
    {
      "inputs": [],
      "name": "toUnit",
      "outputs": [
        {
          "internalType": "contract IERC20",
          "name": "",
          "type": "address"
        }
      ],
      "stateMutability": "view",
      "type": "function"
    },
    {
      "inputs": [],
      "name": "wallet",
      "outputs": [
        {
          "internalType": "address payable",
          "name": "",
          "type": "address"
        }
      ],
      "stateMutability": "view",
      "type": "function"
    },
    {
      "inputs": [],
      "name": "weiRaised",
      "outputs": [
        {
          "internalType": "uint256",
          "name": "",
          "type": "uint256"
        }
      ],
      "stateMutability": "view",
      "type": "function"
    },
    {
      "stateMutability": "payable",
      "type": "receive"
    }
  ],
  "bytecode": "0x608060405234801561001057600080fd5b5060405161076138038061076183398101604081905261002f91610191565b6001600055838383826100755760405162461bcd60e51b815260206004820152600960248201526807261746520697320360bc1b60448201526064015b60405180910390fd5b6001600160a01b0382166100cb5760405162461bcd60e51b815260206004820152601a60248201527f77616c6c657420697320746865207a65726f2061646472657373000000000000604482015260640161006c565b6001600160a01b0381166101215760405162461bcd60e51b815260206004820152601960248201527f746f6b656e20697320746865207a65726f206164647265737300000000000000604482015260640161006c565b600392909255600280546001600160a01b039283166001600160a01b031991821617909155600180549383169390911692909217909155600580546001600160a81b03191692909116919091179055506101e6915050565b6001600160a01b038116811461018e57600080fd5b50565b600080600080608085870312156101a757600080fd5b8451935060208501516101b981610179565b60408601519093506101ca81610179565b60608601519092506101db81610179565b939692955090935050565b61056c806101f56000396000f3fe6080604052600436106100595760003560e01c80632c4e722e146100735780634042b66f14610097578063521eb273146100ac57806378794d57146100de578063c077c32f146100fc578063ec8ac4d81461012d57600080fd5b3661006e5761006c3361013b565b61013b565b005b600080fd5b34801561007f57600080fd5b506003545b6040519081526020015b60405180910390f35b3480156100a357600080fd5b50600454610084565b3480156100b857600080fd5b506002546001600160a01b03165b6040516001600160a01b03909116815260200161008e565b3480156100ea57600080fd5b506001546001600160a01b03166100c6565b34801561010857600080fd5b5060055461011d90600160a01b900460ff1681565b604051901515815260200161008e565b61006c61006736600461049e565b600260005414156101935760405162461bcd60e51b815260206004820152601f60248201527f5265656e7472616e637947756172643a207265656e7472616e742063616c6c0060448201526064015b60405180910390fd5b6002600055346101a38282610223565b60006101ae826102ab565b6004549091506101be90836102c8565b6004556101cb83826102db565b60408051838152602081018390526001600160a01b0385169133917f6faf93231a456e552dbc9961f58d9713ee4f2e69d15f1975b050ef0911053a7b910160405180910390a36102196102e5565b5050600160005550565b61022d8282610321565b6102378282610373565b600554600160a01b900460ff16156102a7576005546040516311e1464b60e01b81526001600160a01b038481166004830152909116906311e1464b9060240160006040518083038186803b15801561028e57600080fd5b505afa1580156102a2573d6000803e3d6000fd5b505050505b5050565b60006102c26003548361040790919063ffffffff16565b92915050565b60006102d482846104dd565b9392505050565b6102a78282610413565b6002546040516001600160a01b03909116903480156108fc02916000818181858888f1935050505015801561031e573d6000803e3d6000fd5b50565b80826001600160a01b03163110156102a75760405162461bcd60e51b81526020600482015260156024820152741b9bdd08195b9bdd59da08115d1a195c881cd95b9d605a1b604482015260640161018a565b6001600160a01b0382166103c95760405162461bcd60e51b815260206004820152601f60248201527f62656e656669636961727920697320746865207a65726f206164647265737300604482015260640161018a565b806102a75760405162461bcd60e51b815260206004820152600e60248201526d0776569416d6f756e7420697320360941b604482015260640161018a565b60006102d482846104f5565b60015460405163a9059cbb60e01b81526001600160a01b038481166004830152602482018490529091169063a9059cbb90604401602060405180830381600087803b15801561046157600080fd5b505af1158015610475573d6000803e3d6000fd5b505050506040513d601f19601f820116820180604052508101906104999190610514565b505050565b6000602082840312156104b057600080fd5b81356001600160a01b03811681146102d457600080fd5b634e487b7160e01b600052601160045260246000fd5b600082198211156104f0576104f06104c7565b500190565b600081600019048311821515161561050f5761050f6104c7565b500290565b60006020828403121561052657600080fd5b815180151581146102d457600080fdfea2646970667358221220dd109eb4aee018565d4ed514006fd78b28c092fca785cea15b2e08b95303044f64736f6c63430008090033",
  "linkReferences": {},
  "deployedLinkReferences": {}
}