{
  "_format": "hh-sol-artifact-1",
  "contractName": "SwapContractFactory",
  "sourceName": "contracts/SwapContractFactory.sol",
  "abi": [
    {
      "anonymous": false,
      "inputs": [
        {
          "indexed": true,
          "internalType": "address",
          "name": "swapContractAddress",
          "type": "address"
        },
        {
          "indexed": true,
          "internalType": "address",
          "name": "baseTokenAddress",
          "type": "address"
        },
        {
          "indexed": true,
          "internalType": "address",
          "name": "quoteTokenAddress",
          "type": "address"
        }
      ],
      "name": "DeployedSwapContract",
      "type": "event"
    },
    {
      "anonymous": false,
      "inputs": [
        {
          "indexed": true,
          "internalType": "address",
          "name": "previousOwner",
          "type": "address"
        },
        {
          "indexed": true,
          "internalType": "address",
          "name": "newOwner",
          "type": "address"
        }
      ],
      "name": "OwnershipTransferred",
      "type": "event"
    },
    {
      "inputs": [
        {
          "internalType": "contract ERC20",
          "name": "_baseToken",
          "type": "address"
        },
        {
          "internalType": "contract ERC20",
          "name": "_quoteToken",
          "type": "address"
        },
        {
          "internalType": "address",
          "name": "_exchangeRate",
          "type": "address"
        }
      ],
      "name": "deployNewSwapContract",
      "outputs": [],
      "stateMutability": "nonpayable",
      "type": "function"
    },
    {
      "inputs": [
        {
          "internalType": "string",
          "name": "",
          "type": "string"
        }
      ],
      "name": "deployedSwapContractsRegistry",
      "outputs": [
        {
          "internalType": "address",
          "name": "swapContractAddress",
          "type": "address"
        },
        {
          "internalType": "address",
          "name": "quoteTokenAddress",
          "type": "address"
        },
        {
          "internalType": "address",
          "name": "baseTokenAddress",
          "type": "address"
        },
        {
          "internalType": "bool",
          "name": "deployed",
          "type": "bool"
        }
      ],
      "stateMutability": "view",
      "type": "function"
    },
    {
      "inputs": [],
      "name": "getAllSwapPairs",
      "outputs": [
        {
          "internalType": "string[]",
          "name": "",
          "type": "string[]"
        }
      ],
      "stateMutability": "view",
      "type": "function"
    },
    {
      "inputs": [],
      "name": "owner",
      "outputs": [
        {
          "internalType": "address",
          "name": "",
          "type": "address"
        }
      ],
      "stateMutability": "view",
      "type": "function"
    },
    {
      "inputs": [],
      "name": "renounceOwnership",
      "outputs": [],
      "stateMutability": "nonpayable",
      "type": "function"
    },
    {
      "inputs": [
        {
          "internalType": "uint256",
          "name": "",
          "type": "uint256"
        }
      ],
      "name": "swapPairs",
      "outputs": [
        {
          "internalType": "string",
          "name": "",
          "type": "string"
        }
      ],
      "stateMutability": "view",
      "type": "function"
    },
    {
      "inputs": [
        {
          "internalType": "address",
          "name": "newOwner",
          "type": "address"
        }
      ],
      "name": "transferOwnership",
      "outputs": [],
      "stateMutability": "nonpayable",
      "type": "function"
    }
  ],
  "bytecode": "0x608060405234801561001057600080fd5b5061001a3361001f565b61006f565b600080546001600160a01b038381166001600160a01b0319831681178455604051919092169283917f8be0079c531659141344cd1fd0a4f28419497f9722a3daafe3b4186f6b6457e09190a35050565b6120408061007e6000396000f3fe60806040523480156200001157600080fd5b5060043610620000875760003560e01c80638dc8346a11620000625780638dc8346a14620000cf57806398499999146200015f578063e891749c1462000178578063f2fde38b146200019e57600080fd5b806334b71732146200008c578063715018a614620000a55780638da5cb5b14620000af575b600080fd5b620000a36200009d366004620007ef565b620001b5565b005b620000a362000460565b6000546040516001600160a01b0390911681526020015b60405180910390f35b62000129620000e0366004620008b6565b8051602081830181018051600280835293830192909401919091209290528154600183015492909101546001600160a01b0391821692821691811690600160a01b900460ff1684565b604051620000c694939291906001600160a01b039485168152928416602084015292166040820152901515606082015260800190565b620001696200049b565b604051620000c691906200099f565b6200018f6200018936600462000a05565b6200057e565b604051620000c6919062000a1f565b620000a3620001af36600462000a3b565b62000633565b6000546001600160a01b03163314620001eb5760405162461bcd60e51b8152600401620001e29062000a5b565b60405180910390fd5b6000838383604051620001fe9062000725565b6001600160a01b03938416815291831660208301529091166040820152606001604051809103906000f0801580156200023b573d6000803e3d6000fd5b5090506000816001600160a01b03166340794c3b6040518163ffffffff1660e01b815260040160006040518083038186803b1580156200027a57600080fd5b505afa1580156200028f573d6000803e3d6000fd5b505050506040513d6000823e601f3d908101601f19168201604052620002b9919081019062000a90565b9050600281604051620002cd919062000b10565b9081526040519081900360200190206002015460ff600160a01b90910416156200032d5760405162461bcd60e51b815260206004820152601060248201526f185b1c9958591e4819195c1b1bde595960821b6044820152606401620001e2565b600180548082018255600091909152815162000371917fb10e2d527612073b26eecdfd717e6a320cf44b4afac2b0732d9fcbe2b7fa0cf60190602084019062000733565b50604080516080810182526001600160a01b0380851682528681166020830152871681830152600160608201529051600290620003b090849062000b10565b908152604080519182900360209081018320845181546001600160a01b039182166001600160a01b031991821617835592860151600183018054918316919094161790925591840151600290920180546060909501511515600160a01b026001600160a81b0319909516928216929092179390931790558582169187811691908516907feef44cf01478bb2191a265ef9eaacaeb1c7c10eabed8d7e76e46c6ec77e04afa90600090a45050505050565b6000546001600160a01b031633146200048d5760405162461bcd60e51b8152600401620001e29062000a5b565b620004996000620006d5565b565b60606001805480602002602001604051908101604052809291908181526020016000905b8282101562000575578382906000526020600020018054620004e19062000b2e565b80601f01602080910402602001604051908101604052809291908181526020018280546200050f9062000b2e565b8015620005605780601f10620005345761010080835404028352916020019162000560565b820191906000526020600020905b8154815290600101906020018083116200054257829003601f168201915b505050505081526020019060010190620004bf565b50505050905090565b600181815481106200058f57600080fd5b906000526020600020016000915090508054620005ac9062000b2e565b80601f0160208091040260200160405190810160405280929190818152602001828054620005da9062000b2e565b80156200062b5780601f10620005ff576101008083540402835291602001916200062b565b820191906000526020600020905b8154815290600101906020018083116200060d57829003601f168201915b505050505081565b6000546001600160a01b03163314620006605760405162461bcd60e51b8152600401620001e29062000a5b565b6001600160a01b038116620006c75760405162461bcd60e51b815260206004820152602660248201527f4f776e61626c653a206e6577206f776e657220697320746865207a65726f206160448201526564647265737360d01b6064820152608401620001e2565b620006d281620006d5565b50565b600080546001600160a01b038381166001600160a01b0319831681178455604051919092169283917f8be0079c531659141344cd1fd0a4f28419497f9722a3daafe3b4186f6b6457e09190a35050565b61149f8062000b6c83390190565b828054620007419062000b2e565b90600052602060002090601f016020900481019282620007655760008555620007b0565b82601f106200078057805160ff1916838001178555620007b0565b82800160010185558215620007b0579182015b82811115620007b057825182559160200191906001019062000793565b50620007be929150620007c2565b5090565b5b80821115620007be5760008155600101620007c3565b6001600160a01b0381168114620006d257600080fd5b6000806000606084860312156200080557600080fd5b83356200081281620007d9565b925060208401356200082481620007d9565b915060408401356200083681620007d9565b809150509250925092565b634e487b7160e01b600052604160045260246000fd5b604051601f8201601f1916810167ffffffffffffffff8111828210171562000883576200088362000841565b604052919050565b600067ffffffffffffffff821115620008a857620008a862000841565b50601f01601f191660200190565b600060208284031215620008c957600080fd5b813567ffffffffffffffff811115620008e157600080fd5b8201601f81018413620008f357600080fd5b80356200090a62000904826200088b565b62000857565b8181528560208385010111156200092057600080fd5b81602084016020830137600091810160200191909152949350505050565b60005b838110156200095b57818101518382015260200162000941565b838111156200096b576000848401525b50505050565b600081518084526200098b8160208601602086016200093e565b601f01601f19169290920160200192915050565b6000602080830181845280855180835260408601915060408160051b870101925083870160005b82811015620009f857603f19888603018452620009e585835162000971565b94509285019290850190600101620009c6565b5092979650505050505050565b60006020828403121562000a1857600080fd5b5035919050565b60208152600062000a34602083018462000971565b9392505050565b60006020828403121562000a4e57600080fd5b813562000a3481620007d9565b6020808252818101527f4f776e61626c653a2063616c6c6572206973206e6f7420746865206f776e6572604082015260600190565b60006020828403121562000aa357600080fd5b815167ffffffffffffffff81111562000abb57600080fd5b8201601f8101841362000acd57600080fd5b805162000ade62000904826200088b565b81815285602083850101111562000af457600080fd5b62000b078260208301602086016200093e565b95945050505050565b6000825162000b248184602087016200093e565b9190910192915050565b600181811c9082168062000b4357607f821691505b6020821081141562000b6557634e487b7160e01b600052602260045260246000fd5b5091905056fe60806040526002805460ff191660121790553480156200001e57600080fd5b506040516200149f3803806200149f8339810160408190526200004191620002dc565b600080546001600160a01b038084166001600160a01b03199283161783556002805486831661010002610100600160a81b031990911617905560038054918716919092168117909155604080516395d89b4160e01b81529051620001ae936395d89b419260048082019391829003018186803b158015620000c157600080fd5b505afa158015620000d6573d6000803e3d6000fd5b505050506040513d6000823e601f3d908101601f1916820160405262000100919081019062000379565b604051806040016040528060018152602001602f60f81b815250600260019054906101000a90046001600160a01b03166001600160a01b03166395d89b416040518163ffffffff1660e01b815260040160006040518083038186803b1580156200016957600080fd5b505afa1580156200017e573d6000803e3d6000fd5b505050506040513d6000823e601f3d908101601f19168201604052620001a8919081019062000379565b620001ce565b8051620001c4916001916020909101906200021d565b50505050620004a1565b6060620001e7620001e08585620001ef565b83620001ef565b949350505050565b606082826040516020016200020692919062000431565b604051602081830303815290604052905092915050565b8280546200022b9062000464565b90600052602060002090601f0160209004810192826200024f57600085556200029a565b82601f106200026a57805160ff19168380011785556200029a565b828001600101855582156200029a579182015b828111156200029a5782518255916020019190600101906200027d565b50620002a8929150620002ac565b5090565b5b80821115620002a85760008155600101620002ad565b6001600160a01b0381168114620002d957600080fd5b50565b600080600060608486031215620002f257600080fd5b8351620002ff81620002c3565b60208501519093506200031281620002c3565b60408501519092506200032581620002c3565b809150509250925092565b634e487b7160e01b600052604160045260246000fd5b60005b838110156200036357818101518382015260200162000349565b8381111562000373576000848401525b50505050565b6000602082840312156200038c57600080fd5b81516001600160401b0380821115620003a457600080fd5b818401915084601f830112620003b957600080fd5b815181811115620003ce57620003ce62000330565b604051601f8201601f19908116603f01168101908382118183101715620003f957620003f962000330565b816040528281528760208487010111156200041357600080fd5b6200042683602083016020880162000346565b979650505050505050565b600083516200044581846020880162000346565b8351908301906200045b81836020880162000346565b01949350505050565b600181811c908216806200047957607f821691505b602082108114156200049b57634e487b7160e01b600052602260045260246000fd5b50919050565b610fee80620004b16000396000f3fe6080604052600436106100915760003560e01c80639d0ba183116100595780639d0ba1831461015d578063ad5d203c1461017d578063c55dae6314610192578063c8a24fb1146101b2578063d880c370146101c757600080fd5b80630c57004a14610096578063217a4b70146100c9578063217eb0ae1461010657806340794c3b1461011b5780639b013aee1461013d575b600080fd5b3480156100a257600080fd5b506100b66100b1366004610adc565b6101da565b6040519081526020015b60405180910390f35b3480156100d557600080fd5b506002546100ee9061010090046001600160a01b031681565b6040516001600160a01b0390911681526020016100c0565b34801561011257600080fd5b506100b66102dd565b34801561012757600080fd5b506101306102fa565b6040516100c09190610b21565b34801561014957600080fd5b506100b6610158366004610adc565b610388565b34801561016957600080fd5b506100b6610178366004610b66565b6103c5565b61019061018b366004610adc565b610525565b005b34801561019e57600080fd5b506003546100ee906001600160a01b031681565b3480156101be57600080fd5b506100b66106ab565b6101906101d5366004610adc565b6106c8565b6000806101e68361079e565b9050808361029a60405180604001604052806004815260200163020b9b5960e51b8152506001805461021790610b83565b80601f016020809104026020016040519081016040528092919081815260200182805461024390610b83565b80156102905780601f1061026557610100808354040283529160200191610290565b820191906000526020600020905b81548152906001019060200180831161027357829003601f168201915b50505050506107d9565b6040516102a79190610bbe565b604051908190038120907f88350a00c9d980accf5486d4817c4f938edc6aa8a526efb4c9eaa7e12c69f4cb90600090a492915050565b6003546000906102f5906001600160a01b0316610806565b905090565b6001805461030790610b83565b80601f016020809104026020016040519081016040528092919081815260200182805461033390610b83565b80156103805780601f1061035557610100808354040283529160200191610380565b820191906000526020600020905b81548152906001019060200180831161036357829003601f168201915b505050505081565b60008061039483610880565b9050808361029a6040518060400160405280600481526020016302134b2160e51b8152506001805461021790610b83565b60008060008060009054906101000a90046001600160a01b03166001600160a01b031663feaf968c6040518163ffffffff1660e01b815260040160a06040518083038186803b15801561041757600080fd5b505afa15801561042b573d6000803e3d6000fd5b505050506040513d601f19601f8201168201806040525081019061044f9190610bf9565b5093505092505060008060009054906101000a90046001600160a01b03166001600160a01b031663313ce5676040518163ffffffff1660e01b815260040160206040518083038186803b1580156104a557600080fd5b505afa1580156104b9573d6000803e3d6000fd5b505050506040513d601f19601f820116820180604052508101906104dd9190610c49565b905060006104ec8483886108b4565b905082817fb6c1393c2251d5f83b6b4923759cf156e72f269dc654f872eab19c92b853cf5e60405160405180910390a395945050505050565b61052f3382610925565b600061053a826101da565b90506105463082610940565b6003546001600160a01b03166323b872dd336040516001600160e01b031960e084901b1681526001600160a01b03909116600482015230602482015260448101859052606401602060405180830381600087803b1580156105a657600080fd5b505af11580156105ba573d6000803e3d6000fd5b505050506040513d601f19601f820116820180604052508101906105de9190610c66565b5060025461010090046001600160a01b031663a9059cbb335b6040516001600160e01b031960e084901b1681526001600160a01b03909116600482015260248101849052604401602060405180830381600087803b15801561063f57600080fd5b505af1158015610653573d6000803e3d6000fd5b505050506040513d601f19601f820116820180604052508101906106779190610c66565b506040518190839033907f42daeb9fe1f789384a4e1fd40506a3a12cec73b4c4ea3302b3c501c8e044aebb90600090a45050565b6002546000906102f59061010090046001600160a01b0316610806565b6106d23382610940565b60006106dd82610388565b90506106e93082610925565b60025461010090046001600160a01b03166323b872dd336040516001600160e01b031960e084901b1681526001600160a01b03909116600482015230602482015260448101859052606401602060405180830381600087803b15801561074e57600080fd5b505af1158015610762573d6000803e3d6000fd5b505050506040513d601f19601f820116820180604052508101906107869190610c66565b506003546001600160a01b031663a9059cbb336105f7565b60025460009081906107b29060ff166103c5565b60025490915081906107c890859060ff1661095c565b6107d29190610c9e565b9392505050565b606082826040516020016107ee929190610cbd565b60405160208183030381529060405290505b92915050565b6040516370a0823160e01b81523060048201526000906001600160a01b038316906370a082319060240160206040518083038186803b15801561084857600080fd5b505afa15801561085c573d6000803e3d6000fd5b505050506040513d601f19601f820116820180604052508101906108009190610cec565b60025460009081906108949060ff166103c5565b60025490915081906108aa90859060ff16610976565b6107d29190610d1b565b60008160ff168360ff1610156108ed576108ce8383610d2f565b6108dc9060ff16600a610e36565b6108e69085610e42565b90506107d2565b8160ff168360ff16111561091d576109058284610d2f565b6109139060ff16600a610e36565b6108e69085610ec7565b509192915050565b60035461093c906001600160a01b03168383610990565b5050565b60025461093c9061010090046001600160a01b03168383610990565b600061096c60ff8316600a610e36565b6107d29084610d1b565b600061098660ff8316600a610e36565b6107d29084610c9e565b6040516370a0823160e01b81526001600160a01b0383811660048301528291908516906370a082319060240160206040518083038186803b1580156109d457600080fd5b505afa1580156109e8573d6000803e3d6000fd5b505050506040513d601f19601f82011682018060405250810190610a0c9190610cec565b1015610aaf6040518060400160405280600b81526020016a02737ba1032b737bab3b4160ad1b815250856001600160a01b03166395d89b416040518163ffffffff1660e01b815260040160006040518083038186803b158015610a6e57600080fd5b505afa158015610a82573d6000803e3d6000fd5b505050506040513d6000823e601f3d908101601f19168201604052610aaa9190810190610f0b565b6107d9565b90610ad65760405162461bcd60e51b8152600401610acd9190610b21565b60405180910390fd5b50505050565b600060208284031215610aee57600080fd5b5035919050565b60005b83811015610b10578181015183820152602001610af8565b83811115610ad65750506000910152565b6020815260008251806020840152610b40816040850160208701610af5565b601f01601f19169190910160400192915050565b60ff81168114610b6357600080fd5b50565b600060208284031215610b7857600080fd5b81356107d281610b54565b600181811c90821680610b9757607f821691505b60208210811415610bb857634e487b7160e01b600052602260045260246000fd5b50919050565b60008251610bd0818460208701610af5565b9190910192915050565b805169ffffffffffffffffffff81168114610bf457600080fd5b919050565b600080600080600060a08688031215610c1157600080fd5b610c1a86610bda565b9450602086015193506040860151925060608601519150610c3d60808701610bda565b90509295509295909350565b600060208284031215610c5b57600080fd5b81516107d281610b54565b600060208284031215610c7857600080fd5b815180151581146107d257600080fd5b634e487b7160e01b600052601160045260246000fd5b6000816000190483118215151615610cb857610cb8610c88565b500290565b60008351610ccf818460208801610af5565b835190830190610ce3818360208801610af5565b01949350505050565b600060208284031215610cfe57600080fd5b5051919050565b634e487b7160e01b600052601260045260246000fd5b600082610d2a57610d2a610d05565b500490565b600060ff821660ff841680821015610d4957610d49610c88565b90039392505050565b600181815b80851115610d8d578160001904821115610d7357610d73610c88565b80851615610d8057918102915b93841c9390800290610d57565b509250929050565b600082610da457506001610800565b81610db157506000610800565b8160018114610dc75760028114610dd157610ded565b6001915050610800565b60ff841115610de257610de2610c88565b50506001821b610800565b5060208310610133831016604e8410600b8410161715610e10575081810a610800565b610e1a8383610d52565b8060001904821115610e2e57610e2e610c88565b029392505050565b60006107d28383610d95565b60006001600160ff1b0381841382841380821686840486111615610e6857610e68610c88565b600160ff1b6000871282811687830589121615610e8757610e87610c88565b60008712925087820587128484161615610ea357610ea3610c88565b87850587128184161615610eb957610eb9610c88565b505050929093029392505050565b600082610ed657610ed6610d05565b600160ff1b821460001984141615610ef057610ef0610c88565b500590565b634e487b7160e01b600052604160045260246000fd5b600060208284031215610f1d57600080fd5b815167ffffffffffffffff80821115610f3557600080fd5b818401915084601f830112610f4957600080fd5b815181811115610f5b57610f5b610ef5565b604051601f8201601f19908116603f01168101908382118183101715610f8357610f83610ef5565b81604052828152876020848701011115610f9c57600080fd5b610fad836020830160208801610af5565b97965050505050505056fea26469706673582212204ebf3ffe6b6373d5ca25667a10feb79672d9045dc4a6e63142a5ffa355ab8bf564736f6c63430008090033a2646970667358221220732995368c25bf2e249239c414e63872dca2f8177f3cba2bf41cf1900f7e98d164736f6c63430008090033",
  "linkReferences": {},
  "deployedLinkReferences": {}
}